{
    "_format": "hh-sol-artifact-1",
    "contractName": "TicketMaster",
    "sourceName": "contracts/TicketMaster.sol",
    "abi": [
        {
            "inputs": [],
            "stateMutability": "nonpayable",
            "type": "constructor"
        },
        {
            "inputs": [],
            "name": "AccessControlBadConfirmation",
            "type": "error"
        },
        {
            "inputs": [
                {
                    "internalType": "address",
                    "name": "account",
                    "type": "address"
                },
                {
                    "internalType": "bytes32",
                    "name": "neededRole",
                    "type": "bytes32"
                }
            ],
            "name": "AccessControlUnauthorizedAccount",
            "type": "error"
        },
        {
            "inputs": [
                {
                    "internalType": "address",
                    "name": "sender",
                    "type": "address"
                },
                {
                    "internalType": "uint256",
                    "name": "balance",
                    "type": "uint256"
                },
                {
                    "internalType": "uint256",
                    "name": "needed",
                    "type": "uint256"
                },
                {
                    "internalType": "uint256",
                    "name": "tokenId",
                    "type": "uint256"
                }
            ],
            "name": "ERC1155InsufficientBalance",
            "type": "error"
        },
        {
            "inputs": [
                {
                    "internalType": "address",
                    "name": "approver",
                    "type": "address"
                }
            ],
            "name": "ERC1155InvalidApprover",
            "type": "error"
        },
        {
            "inputs": [
                {
                    "internalType": "uint256",
                    "name": "idsLength",
                    "type": "uint256"
                },
                {
                    "internalType": "uint256",
                    "name": "valuesLength",
                    "type": "uint256"
                }
            ],
            "name": "ERC1155InvalidArrayLength",
            "type": "error"
        },
        {
            "inputs": [
                {
                    "internalType": "address",
                    "name": "operator",
                    "type": "address"
                }
            ],
            "name": "ERC1155InvalidOperator",
            "type": "error"
        },
        {
            "inputs": [
                {
                    "internalType": "address",
                    "name": "receiver",
                    "type": "address"
                }
            ],
            "name": "ERC1155InvalidReceiver",
            "type": "error"
        },
        {
            "inputs": [
                {
                    "internalType": "address",
                    "name": "sender",
                    "type": "address"
                }
            ],
            "name": "ERC1155InvalidSender",
            "type": "error"
        },
        {
            "inputs": [
                {
                    "internalType": "address",
                    "name": "operator",
                    "type": "address"
                },
                {
                    "internalType": "address",
                    "name": "owner",
                    "type": "address"
                }
            ],
            "name": "ERC1155MissingApprovalForAll",
            "type": "error"
        },
        {
            "inputs": [],
            "name": "ReentrancyGuardReentrantCall",
            "type": "error"
        },
        {
            "anonymous": false,
            "inputs": [
                {
                    "indexed": true,
                    "internalType": "address",
                    "name": "account",
                    "type": "address"
                },
                {
                    "indexed": true,
                    "internalType": "address",
                    "name": "operator",
                    "type": "address"
                },
                {
                    "indexed": false,
                    "internalType": "bool",
                    "name": "approved",
                    "type": "bool"
                }
            ],
            "name": "ApprovalForAll",
            "type": "event"
        },
        {
            "anonymous": false,
            "inputs": [
                {
                    "indexed": true,
                    "internalType": "uint256",
                    "name": "eventId",
                    "type": "uint256"
                },
                {
                    "indexed": false,
                    "internalType": "string",
                    "name": "name",
                    "type": "string"
                },
                {
                    "indexed": true,
                    "internalType": "address",
                    "name": "organizer",
                    "type": "address"
                },
                {
                    "indexed": false,
                    "internalType": "uint256",
                    "name": "price",
                    "type": "uint256"
                },
                {
                    "indexed": false,
                    "internalType": "uint256",
                    "name": "supply",
                    "type": "uint256"
                }
            ],
            "name": "EventCreated",
            "type": "event"
        },
        {
            "anonymous": false,
            "inputs": [
                {
                    "indexed": true,
                    "internalType": "bytes32",
                    "name": "role",
                    "type": "bytes32"
                },
                {
                    "indexed": true,
                    "internalType": "bytes32",
                    "name": "previousAdminRole",
                    "type": "bytes32"
                },
                {
                    "indexed": true,
                    "internalType": "bytes32",
                    "name": "newAdminRole",
                    "type": "bytes32"
                }
            ],
            "name": "RoleAdminChanged",
            "type": "event"
        },
        {
            "anonymous": false,
            "inputs": [
                {
                    "indexed": true,
                    "internalType": "bytes32",
                    "name": "role",
                    "type": "bytes32"
                },
                {
                    "indexed": true,
                    "internalType": "address",
                    "name": "account",
                    "type": "address"
                },
                {
                    "indexed": true,
                    "internalType": "address",
                    "name": "sender",
                    "type": "address"
                }
            ],
            "name": "RoleGranted",
            "type": "event"
        },
        {
            "anonymous": false,
            "inputs": [
                {
                    "indexed": true,
                    "internalType": "bytes32",
                    "name": "role",
                    "type": "bytes32"
                },
                {
                    "indexed": true,
                    "internalType": "address",
                    "name": "account",
                    "type": "address"
                },
                {
                    "indexed": true,
                    "internalType": "address",
                    "name": "sender",
                    "type": "address"
                }
            ],
            "name": "RoleRevoked",
            "type": "event"
        },
        {
            "anonymous": false,
            "inputs": [
                {
                    "indexed": true,
                    "internalType": "uint256",
                    "name": "eventId",
                    "type": "uint256"
                },
                {
                    "indexed": true,
                    "internalType": "address",
                    "name": "ticketHolder",
                    "type": "address"
                },
                {
                    "indexed": false,
                    "internalType": "uint256",
                    "name": "quantity",
                    "type": "uint256"
                }
            ],
            "name": "TicketRedeemed",
            "type": "event"
        },
        {
            "anonymous": false,
            "inputs": [
                {
                    "indexed": true,
                    "internalType": "uint256",
                    "name": "eventId",
                    "type": "uint256"
                },
                {
                    "indexed": true,
                    "internalType": "address",
                    "name": "buyer",
                    "type": "address"
                },
                {
                    "indexed": false,
                    "internalType": "uint256",
                    "name": "quantity",
                    "type": "uint256"
                }
            ],
            "name": "TicketsPurchased",
            "type": "event"
        },
        {
            "anonymous": false,
            "inputs": [
                {
                    "indexed": true,
                    "internalType": "address",
                    "name": "operator",
                    "type": "address"
                },
                {
                    "indexed": true,
                    "internalType": "address",
                    "name": "from",
                    "type": "address"
                },
                {
                    "indexed": true,
                    "internalType": "address",
                    "name": "to",
                    "type": "address"
                },
                {
                    "indexed": false,
                    "internalType": "uint256[]",
                    "name": "ids",
                    "type": "uint256[]"
                },
                {
                    "indexed": false,
                    "internalType": "uint256[]",
                    "name": "values",
                    "type": "uint256[]"
                }
            ],
            "name": "TransferBatch",
            "type": "event"
        },
        {
            "anonymous": false,
            "inputs": [
                {
                    "indexed": true,
                    "internalType": "address",
                    "name": "operator",
                    "type": "address"
                },
                {
                    "indexed": true,
                    "internalType": "address",
                    "name": "from",
                    "type": "address"
                },
                {
                    "indexed": true,
                    "internalType": "address",
                    "name": "to",
                    "type": "address"
                },
                {
                    "indexed": false,
                    "internalType": "uint256",
                    "name": "id",
                    "type": "uint256"
                },
                {
                    "indexed": false,
                    "internalType": "uint256",
                    "name": "value",
                    "type": "uint256"
                }
            ],
            "name": "TransferSingle",
            "type": "event"
        },
        {
            "anonymous": false,
            "inputs": [
                {
                    "indexed": false,
                    "internalType": "string",
                    "name": "value",
                    "type": "string"
                },
                {
                    "indexed": true,
                    "internalType": "uint256",
                    "name": "id",
                    "type": "uint256"
                }
            ],
            "name": "URI",
            "type": "event"
        },
        {
            "inputs": [],
            "name": "DEFAULT_ADMIN_ROLE",
            "outputs": [
                {
                    "internalType": "bytes32",
                    "name": "",
                    "type": "bytes32"
                }
            ],
            "stateMutability": "view",
            "type": "function"
        },
        {
            "inputs": [],
            "name": "ORGANIZER_ROLE",
            "outputs": [
                {
                    "internalType": "bytes32",
                    "name": "",
                    "type": "bytes32"
                }
            ],
            "stateMutability": "view",
            "type": "function"
        },
        {
            "inputs": [],
            "name": "SCANNER_ROLE",
            "outputs": [
                {
                    "internalType": "bytes32",
                    "name": "",
                    "type": "bytes32"
                }
            ],
            "stateMutability": "view",
            "type": "function"
        },
        {
            "inputs": [
                {
                    "internalType": "address",
                    "name": "account",
                    "type": "address"
                },
                {
                    "internalType": "uint256",
                    "name": "id",
                    "type": "uint256"
                }
            ],
            "name": "balanceOf",
            "outputs": [
                {
                    "internalType": "uint256",
                    "name": "",
                    "type": "uint256"
                }
            ],
            "stateMutability": "view",
            "type": "function"
        },
        {
            "inputs": [
                {
                    "internalType": "address[]",
                    "name": "accounts",
                    "type": "address[]"
                },
                {
                    "internalType": "uint256[]",
                    "name": "ids",
                    "type": "uint256[]"
                }
            ],
            "name": "balanceOfBatch",
            "outputs": [
                {
                    "internalType": "uint256[]",
                    "name": "",
                    "type": "uint256[]"
                }
            ],
            "stateMutability": "view",
            "type": "function"
        },
        {
            "inputs": [
                {
                    "internalType": "uint256",
                    "name": "_eventId",
                    "type": "uint256"
                },
                {
                    "internalType": "uint256",
                    "name": "_quantity",
                    "type": "uint256"
                }
            ],
            "name": "buyTickets",
            "outputs": [],
            "stateMutability": "payable",
            "type": "function"
        },
        {
            "inputs": [
                {
                    "internalType": "string",
                    "name": "_name",
                    "type": "string"
                },
                {
                    "internalType": "uint256",
                    "name": "_ticketPrice",
                    "type": "uint256"
                },
                {
                    "internalType": "uint256",
                    "name": "_totalSupply",
                    "type": "uint256"
                }
            ],
            "name": "createEvent",
            "outputs": [],
            "stateMutability": "nonpayable",
            "type": "function"
        },
        {
            "inputs": [
                {
                    "internalType": "uint256",
                    "name": "",
                    "type": "uint256"
                }
            ],
            "name": "eventInfo",
            "outputs": [
                {
                    "internalType": "uint256",
                    "name": "eventId",
                    "type": "uint256"
                },
                {
                    "internalType": "address",
                    "name": "organizer",
                    "type": "address"
                },
                {
                    "internalType": "string",
                    "name": "name",
                    "type": "string"
                },
                {
                    "internalType": "uint256",
                    "name": "ticketPrice",
                    "type": "uint256"
                },
                {
                    "internalType": "uint256",
                    "name": "totalSupply",
                    "type": "uint256"
                },
                {
                    "internalType": "uint256",
                    "name": "ticketsSold",
                    "type": "uint256"
                },
                {
                    "internalType": "bool",
                    "name": "isActive",
                    "type": "bool"
                }
            ],
            "stateMutability": "view",
            "type": "function"
        },
        {
            "inputs": [
                {
                    "internalType": "bytes32",
                    "name": "role",
                    "type": "bytes32"
                }
            ],
            "name": "getRoleAdmin",
            "outputs": [
                {
                    "internalType": "bytes32",
                    "name": "",
                    "type": "bytes32"
                }
            ],
            "stateMutability": "view",
            "type": "function"
        },
        {
            "inputs": [
                {
                    "internalType": "bytes32",
                    "name": "role",
                    "type": "bytes32"
                },
                {
                    "internalType": "address",
                    "name": "account",
                    "type": "address"
                }
            ],
            "name": "grantRole",
            "outputs": [],
            "stateMutability": "nonpayable",
            "type": "function"
        },
        {
            "inputs": [
                {
                    "internalType": "bytes32",
                    "name": "_role",
                    "type": "bytes32"
                },
                {
                    "internalType": "address",
                    "name": "_account",
                    "type": "address"
                }
            ],
            "name": "grantRoleTo",
            "outputs": [],
            "stateMutability": "nonpayable",
            "type": "function"
        },
        {
            "inputs": [
                {
                    "internalType": "bytes32",
                    "name": "role",
                    "type": "bytes32"
                },
                {
                    "internalType": "address",
                    "name": "account",
                    "type": "address"
                }
            ],
            "name": "hasRole",
            "outputs": [
                {
                    "internalType": "bool",
                    "name": "",
                    "type": "bool"
                }
            ],
            "stateMutability": "view",
            "type": "function"
        },
        {
            "inputs": [
                {
                    "internalType": "address",
                    "name": "account",
                    "type": "address"
                },
                {
                    "internalType": "address",
                    "name": "operator",
                    "type": "address"
                }
            ],
            "name": "isApprovedForAll",
            "outputs": [
                {
                    "internalType": "bool",
                    "name": "",
                    "type": "bool"
                }
            ],
            "stateMutability": "view",
            "type": "function"
        },
        {
            "inputs": [
                {
                    "internalType": "uint256",
                    "name": "_eventId",
                    "type": "uint256"
                },
                {
                    "internalType": "address",
                    "name": "_ticketHolder",
                    "type": "address"
                }
            ],
            "name": "redeemTicket",
            "outputs": [],
            "stateMutability": "nonpayable",
            "type": "function"
        },
        {
            "inputs": [
                {
                    "internalType": "uint256",
                    "name": "",
                    "type": "uint256"
                },
                {
                    "internalType": "address",
                    "name": "",
                    "type": "address"
                }
            ],
            "name": "redeemedTickets",
            "outputs": [
                {
                    "internalType": "uint256",
                    "name": "",
                    "type": "uint256"
                }
            ],
            "stateMutability": "view",
            "type": "function"
        },
        {
            "inputs": [
                {
                    "internalType": "bytes32",
                    "name": "role",
                    "type": "bytes32"
                },
                {
                    "internalType": "address",
                    "name": "callerConfirmation",
                    "type": "address"
                }
            ],
            "name": "renounceRole",
            "outputs": [],
            "stateMutability": "nonpayable",
            "type": "function"
        },
        {
            "inputs": [
                {
                    "internalType": "bytes32",
                    "name": "role",
                    "type": "bytes32"
                },
                {
                    "internalType": "address",
                    "name": "account",
                    "type": "address"
                }
            ],
            "name": "revokeRole",
            "outputs": [],
            "stateMutability": "nonpayable",
            "type": "function"
        },
        {
            "inputs": [
                {
                    "internalType": "address",
                    "name": "from",
                    "type": "address"
                },
                {
                    "internalType": "address",
                    "name": "to",
                    "type": "address"
                },
                {
                    "internalType": "uint256[]",
                    "name": "ids",
                    "type": "uint256[]"
                },
                {
                    "internalType": "uint256[]",
                    "name": "values",
                    "type": "uint256[]"
                },
                {
                    "internalType": "bytes",
                    "name": "data",
                    "type": "bytes"
                }
            ],
            "name": "safeBatchTransferFrom",
            "outputs": [],
            "stateMutability": "nonpayable",
            "type": "function"
        },
        {
            "inputs": [
                {
                    "internalType": "address",
                    "name": "from",
                    "type": "address"
                },
                {
                    "internalType": "address",
                    "name": "to",
                    "type": "address"
                },
                {
                    "internalType": "uint256",
                    "name": "id",
                    "type": "uint256"
                },
                {
                    "internalType": "uint256",
                    "name": "value",
                    "type": "uint256"
                },
                {
                    "internalType": "bytes",
                    "name": "data",
                    "type": "bytes"
                }
            ],
            "name": "safeTransferFrom",
            "outputs": [],
            "stateMutability": "nonpayable",
            "type": "function"
        },
        {
            "inputs": [
                {
                    "internalType": "address",
                    "name": "operator",
                    "type": "address"
                },
                {
                    "internalType": "bool",
                    "name": "approved",
                    "type": "bool"
                }
            ],
            "name": "setApprovalForAll",
            "outputs": [],
            "stateMutability": "nonpayable",
            "type": "function"
        },
        {
            "inputs": [
                {
                    "internalType": "bytes4",
                    "name": "interfaceId",
                    "type": "bytes4"
                }
            ],
            "name": "supportsInterface",
            "outputs": [
                {
                    "internalType": "bool",
                    "name": "",
                    "type": "bool"
                }
            ],
            "stateMutability": "view",
            "type": "function"
        },
        {
            "inputs": [
                {
                    "internalType": "uint256",
                    "name": "",
                    "type": "uint256"
                }
            ],
            "name": "uri",
            "outputs": [
                {
                    "internalType": "string",
                    "name": "",
                    "type": "string"
                }
            ],
            "stateMutability": "view",
            "type": "function"
        },
        {
            "inputs": [],
            "name": "withdrawFunds",
            "outputs": [],
            "stateMutability": "nonpayable",
            "type": "function"
        }
    ],
    "bytecode": "0x60806040523480156200001157600080fd5b50604051806020016040528060008152506200003381620000be60201b60201c565b506001600481905550620000516000801b33620000d360201b60201c565b50620000847f4d2e7a1e3f5dd6e203f087b15756ccf0e4ccd947fe1b639a38540089a1e47f6333620000d360201b60201c565b50620000b77fa9b81438e9053a522b683603c102f65503853bc7aa82f89a130662d957c081fb33620000d360201b60201c565b50620005ab565b8060029081620000cf9190620004c4565b5050565b6000620000e78383620001d760201b60201c565b620001cc5760016003600085815260200190815260200160002060000160008473ffffffffffffffffffffffffffffffffffffffff1673ffffffffffffffffffffffffffffffffffffffff16815260200190815260200160002060006101000a81548160ff021916908315150217905550620001686200024260201b60201c565b73ffffffffffffffffffffffffffffffffffffffff168273ffffffffffffffffffffffffffffffffffffffff16847f2f8788117e7eff1d82e926ec794901d17c78024a50270940304540a733656f0d60405160405180910390a460019050620001d1565b600090505b92915050565b60006003600084815260200190815260200160002060000160008373ffffffffffffffffffffffffffffffffffffffff1673ffffffffffffffffffffffffffffffffffffffff16815260200190815260200160002060009054906101000a900460ff16905092915050565b600033905090565b600081519050919050565b7f4e487b7100000000000000000000000000000000000000000000000000000000600052604160045260246000fd5b7f4e487b7100000000000000000000000000000000000000000000000000000000600052602260045260246000fd5b60006002820490506001821680620002cc57607f821691505b602082108103620002e257620002e162000284565b5b50919050565b60008190508160005260206000209050919050565b60006020601f8301049050919050565b600082821b905092915050565b6000600883026200034c7fffffffffffffffffffffffffffffffffffffffffffffffffffffffffffffffff826200030d565b6200035886836200030d565b95508019841693508086168417925050509392505050565b6000819050919050565b6000819050919050565b6000620003a56200039f620003998462000370565b6200037a565b62000370565b9050919050565b6000819050919050565b620003c18362000384565b620003d9620003d082620003ac565b8484546200031a565b825550505050565b600090565b620003f0620003e1565b620003fd818484620003b6565b505050565b5b81811015620004255762000419600082620003e6565b60018101905062000403565b5050565b601f82111562000474576200043e81620002e8565b6200044984620002fd565b8101602085101562000459578190505b620004716200046885620002fd565b83018262000402565b50505b505050565b600082821c905092915050565b6000620004996000198460080262000479565b1980831691505092915050565b6000620004b4838362000486565b9150826002028217905092915050565b620004cf826200024a565b67ffffffffffffffff811115620004eb57620004ea62000255565b5b620004f78254620002b3565b6200050482828562000429565b600060209050601f8311600181146200053c576000841562000527578287015190505b620005338582620004a6565b865550620005a3565b601f1984166200054c86620002e8565b60005b8281101562000576578489015182556001820191506020850194506020810190506200054f565b8683101562000596578489015162000592601f89168262000486565b8355505b6001600288020188555050505b505050505050565b613b6980620005bb6000396000f3fe60806040526004361061013f5760003560e01c80637909cb59116100b6578063a22cb4651161006f578063a22cb4651461048a578063a5e2361d146104b3578063ba02021d146104dc578063d547741f14610505578063e985e9c51461052e578063f242432a1461056b5761013f565b80637909cb591461036f5780638627df461461039a57806391d14854146103b65780639d0c025b146103f35780639e9580f614610436578063a217fddf1461045f5761013f565b806324600fc31161010857806324600fc314610263578063248a9ca31461027a5780632eb2c2d6146102b75780632f2ff15d146102e057806336568abe146103095780634e1273f4146103325761013f565b8062fdd58e1461014457806301ffc9a7146101815780630a1d8608146101be5780630c073cb5146101fb5780630e89341c14610226575b600080fd5b34801561015057600080fd5b5061016b60048036038101906101669190612414565b610594565b6040516101789190612463565b60405180910390f35b34801561018d57600080fd5b506101a860048036038101906101a391906124d6565b6105ee565b6040516101b5919061251e565b60405180910390f35b3480156101ca57600080fd5b506101e560048036038101906101e09190612539565b610600565b6040516101f29190612463565b60405180910390f35b34801561020757600080fd5b50610210610625565b60405161021d9190612592565b60405180910390f35b34801561023257600080fd5b5061024d600480360381019061024891906125ad565b610649565b60405161025a919061266a565b60405180910390f35b34801561026f57600080fd5b50610278610662565b005b34801561028657600080fd5b506102a1600480360381019061029c91906126b8565b610778565b6040516102ae9190612592565b60405180910390f35b3480156102c357600080fd5b506102de60048036038101906102d991906128e2565b610798565b005b3480156102ec57600080fd5b50610307600480360381019061030291906129b1565b610840565b005b34801561031557600080fd5b50610330600480360381019061032b91906129b1565b610862565b005b34801561033e57600080fd5b5061035960048036038101906103549190612ab4565b6108dd565b6040516103669190612bea565b60405180910390f35b34801561037b57600080fd5b506103846109e6565b6040516103919190612592565b60405180910390f35b6103b460048036038101906103af9190612c0c565b610a0a565b005b3480156103c257600080fd5b506103dd60048036038101906103d891906129b1565b610bea565b6040516103ea919061251e565b60405180910390f35b3480156103ff57600080fd5b5061041a600480360381019061041591906125ad565b610c55565b60405161042d9796959493929190612c5b565b60405180910390f35b34801561044257600080fd5b5061045d60048036038101906104589190612d72565b610d4c565b005b34801561046b57600080fd5b50610474610f7d565b6040516104819190612592565b60405180910390f35b34801561049657600080fd5b506104b160048036038101906104ac9190612e0d565b610f84565b005b3480156104bf57600080fd5b506104da60048036038101906104d591906129b1565b610f9a565b005b3480156104e857600080fd5b5061050360048036038101906104fe9190612539565b610fb7565b005b34801561051157600080fd5b5061052c600480360381019061052791906129b1565b611180565b005b34801561053a57600080fd5b5061055560048036038101906105509190612e4d565b6111a2565b604051610562919061251e565b60405180910390f35b34801561057757600080fd5b50610592600480360381019061058d9190612e8d565b611236565b005b600080600083815260200190815260200160002060008473ffffffffffffffffffffffffffffffffffffffff1673ffffffffffffffffffffffffffffffffffffffff16815260200190815260200160002054905092915050565b60006105f9826112de565b9050919050565b6007602052816000526040600020602052806000526040600020600091509150505481565b7fa9b81438e9053a522b683603c102f65503853bc7aa82f89a130662d957c081fb81565b6060604051806020016040528060008152509050919050565b61066a611358565b6000801b6106778161139e565b6000479050600081116106bf576040517f08c379a00000000000000000000000000000000000000000000000000000000081526004016106b690612f70565b60405180910390fd5b60003373ffffffffffffffffffffffffffffffffffffffff16826040516106e590612fc1565b60006040518083038185875af1925050503d8060008114610722576040519150601f19603f3d011682016040523d82523d6000602084013e610727565b606091505b505090508061076b576040517f08c379a000000000000000000000000000000000000000000000000000000000815260040161076290613022565b60405180910390fd5b5050506107766113b2565b565b600060036000838152602001908152602001600020600101549050919050565b60006107a26113bc565b90508073ffffffffffffffffffffffffffffffffffffffff168673ffffffffffffffffffffffffffffffffffffffff16141580156107e757506107e586826111a2565b155b1561082b5780866040517fe237d922000000000000000000000000000000000000000000000000000000008152600401610822929190613042565b60405180910390fd5b61083886868686866113c4565b505050505050565b61084982610778565b6108528161139e565b61085c83836114bc565b50505050565b61086a6113bc565b73ffffffffffffffffffffffffffffffffffffffff168173ffffffffffffffffffffffffffffffffffffffff16146108ce576040517f6697b23200000000000000000000000000000000000000000000000000000000815260040160405180910390fd5b6108d882826115ae565b505050565b6060815183511461092957815183516040517f5b05999100000000000000000000000000000000000000000000000000000000815260040161092092919061306b565b60405180910390fd5b6000835167ffffffffffffffff811115610946576109456126ea565b5b6040519080825280602002602001820160405280156109745781602001602082028036833780820191505090505b50905060005b84518110156109db576109b161099982876116a190919063ffffffff16565b6109ac83876116b590919063ffffffff16565b610594565b8282815181106109c4576109c3613094565b5b60200260200101818152505080600101905061097a565b508091505092915050565b7f4d2e7a1e3f5dd6e203f087b15756ccf0e4ccd947fe1b639a38540089a1e47f6381565b60006006600084815260200190815260200160002090506000816000015403610a68576040517f08c379a0000000000000000000000000000000000000000000000000000000008152600401610a5f9061310f565b60405180910390fd5b8060060160009054906101000a900460ff16610ab9576040517f08c379a0000000000000000000000000000000000000000000000000000000008152600401610ab09061317b565b60405180910390fd5b818160050154610ac991906131ca565b81600401541015610b0f576040517f08c379a0000000000000000000000000000000000000000000000000000000008152600401610b069061324a565b60405180910390fd5b818160030154610b1f919061326a565b3414610b60576040517f08c379a0000000000000000000000000000000000000000000000000000000008152600401610b57906132f8565b60405180910390fd5b81816005016000828254610b7491906131ca565b92505081905550610b96338484604051806020016040528060008152506116c9565b3373ffffffffffffffffffffffffffffffffffffffff16837ff7c58d5e745042ae3ed41454214210ae1bca7e4a2087c19a3fb2cfc0ed7648e784604051610bdd9190612463565b60405180910390a3505050565b60006003600084815260200190815260200160002060000160008373ffffffffffffffffffffffffffffffffffffffff1673ffffffffffffffffffffffffffffffffffffffff16815260200190815260200160002060009054906101000a900460ff16905092915050565b60066020528060005260406000206000915090508060000154908060010160009054906101000a900473ffffffffffffffffffffffffffffffffffffffff1690806002018054610ca490613347565b80601f0160208091040260200160405190810160405280929190818152602001828054610cd090613347565b8015610d1d5780601f10610cf257610100808354040283529160200191610d1d565b820191906000526020600020905b815481529060010190602001808311610d0057829003601f168201915b5050505050908060030154908060040154908060050154908060060160009054906101000a900460ff16905087565b7f4d2e7a1e3f5dd6e203f087b15756ccf0e4ccd947fe1b639a38540089a1e47f63610d768161139e565b60008311610db9576040517f08c379a0000000000000000000000000000000000000000000000000000000008152600401610db0906133ea565b60405180910390fd5b60008211610dfc576040517f08c379a0000000000000000000000000000000000000000000000000000000008152600401610df39061347c565b60405180910390fd5b60056000815480929190610e0f9061349c565b9190505550600060055490506040518060e001604052808281526020013373ffffffffffffffffffffffffffffffffffffffff1681526020018681526020018581526020018481526020016000815260200160011515815250600660008381526020019081526020016000206000820151816000015560208201518160010160006101000a81548173ffffffffffffffffffffffffffffffffffffffff021916908373ffffffffffffffffffffffffffffffffffffffff1602179055506040820151816002019081610ee19190613690565b50606082015181600301556080820151816004015560a0820151816005015560c08201518160060160006101000a81548160ff0219169083151502179055509050503373ffffffffffffffffffffffffffffffffffffffff16817f81f945738beff591c3eab232e9f3265ce3f12263a2ec7acf84db8dc0fce26a27878787604051610f6e93929190613762565b60405180910390a35050505050565b6000801b81565b610f96610f8f6113bc565b8383611762565b5050565b6000801b610fa78161139e565b610fb183836114bc565b50505050565b7fa9b81438e9053a522b683603c102f65503853bc7aa82f89a130662d957c081fb610fe18161139e565b6000610fed8385610594565b905060008111611032576040517f08c379a000000000000000000000000000000000000000000000000000000000815260040161102990613812565b60405180910390fd5b6007600085815260200190815260200160002060008473ffffffffffffffffffffffffffffffffffffffff1673ffffffffffffffffffffffffffffffffffffffff1681526020019081526020016000205481116110c4576040517f08c379a00000000000000000000000000000000000000000000000000000000081526004016110bb906138a4565b60405180910390fd5b6007600085815260200190815260200160002060008473ffffffffffffffffffffffffffffffffffffffff1673ffffffffffffffffffffffffffffffffffffffff16815260200190815260200160002060008154809291906111259061349c565b91905055508273ffffffffffffffffffffffffffffffffffffffff16847f577db72f216090dddc27ada8d4ad0fd6ab2c365a253821d43c50e4ba5b4f7184600160405161117291906138ff565b60405180910390a350505050565b61118982610778565b6111928161139e565b61119c83836115ae565b50505050565b6000600160008473ffffffffffffffffffffffffffffffffffffffff1673ffffffffffffffffffffffffffffffffffffffff16815260200190815260200160002060008373ffffffffffffffffffffffffffffffffffffffff1673ffffffffffffffffffffffffffffffffffffffff16815260200190815260200160002060009054906101000a900460ff16905092915050565b60006112406113bc565b90508073ffffffffffffffffffffffffffffffffffffffff168673ffffffffffffffffffffffffffffffffffffffff1614158015611285575061128386826111a2565b155b156112c95780866040517fe237d9220000000000000000000000000000000000000000000000000000000081526004016112c0929190613042565b60405180910390fd5b6112d686868686866118d2565b505050505050565b60007f7965db0b000000000000000000000000000000000000000000000000000000007bffffffffffffffffffffffffffffffffffffffffffffffffffffffff1916827bffffffffffffffffffffffffffffffffffffffffffffffffffffffff191614806113515750611350826119dd565b5b9050919050565b600260045403611394576040517f3ee5aeb500000000000000000000000000000000000000000000000000000000815260040160405180910390fd5b6002600481905550565b6113af816113aa6113bc565b611abf565b50565b6001600481905550565b600033905090565b600073ffffffffffffffffffffffffffffffffffffffff168473ffffffffffffffffffffffffffffffffffffffff16036114365760006040517f57f447ce00000000000000000000000000000000000000000000000000000000815260040161142d919061391a565b60405180910390fd5b600073ffffffffffffffffffffffffffffffffffffffff168573ffffffffffffffffffffffffffffffffffffffff16036114a85760006040517f01a8351400000000000000000000000000000000000000000000000000000000815260040161149f919061391a565b60405180910390fd5b6114b58585858585611b10565b5050505050565b60006114c88383610bea565b6115a35760016003600085815260200190815260200160002060000160008473ffffffffffffffffffffffffffffffffffffffff1673ffffffffffffffffffffffffffffffffffffffff16815260200190815260200160002060006101000a81548160ff0219169083151502179055506115406113bc565b73ffffffffffffffffffffffffffffffffffffffff168273ffffffffffffffffffffffffffffffffffffffff16847f2f8788117e7eff1d82e926ec794901d17c78024a50270940304540a733656f0d60405160405180910390a4600190506115a8565b600090505b92915050565b60006115ba8383610bea565b156116965760006003600085815260200190815260200160002060000160008473ffffffffffffffffffffffffffffffffffffffff1673ffffffffffffffffffffffffffffffffffffffff16815260200190815260200160002060006101000a81548160ff0219169083151502179055506116336113bc565b73ffffffffffffffffffffffffffffffffffffffff168273ffffffffffffffffffffffffffffffffffffffff16847ff6391f5c32d9c69d2a47ea670b442974b53935d1edc7fd64eb21e047a839171b60405160405180910390a46001905061169b565b600090505b92915050565b600060208202602084010151905092915050565b600060208202602084010151905092915050565b600073ffffffffffffffffffffffffffffffffffffffff168473ffffffffffffffffffffffffffffffffffffffff160361173b5760006040517f57f447ce000000000000000000000000000000000000000000000000000000008152600401611732919061391a565b60405180910390fd5b6000806117488585611bc2565b9150915061175a600087848487611b10565b505050505050565b600073ffffffffffffffffffffffffffffffffffffffff168273ffffffffffffffffffffffffffffffffffffffff16036117d45760006040517fced3e1000000000000000000000000000000000000000000000000000000000081526004016117cb919061391a565b60405180910390fd5b80600160008573ffffffffffffffffffffffffffffffffffffffff1673ffffffffffffffffffffffffffffffffffffffff16815260200190815260200160002060008473ffffffffffffffffffffffffffffffffffffffff1673ffffffffffffffffffffffffffffffffffffffff16815260200190815260200160002060006101000a81548160ff0219169083151502179055508173ffffffffffffffffffffffffffffffffffffffff168373ffffffffffffffffffffffffffffffffffffffff167f17307eab39ab6107e8899845ad3d59bd9653f200f220920489ca2b5937696c31836040516118c5919061251e565b60405180910390a3505050565b600073ffffffffffffffffffffffffffffffffffffffff168473ffffffffffffffffffffffffffffffffffffffff16036119445760006040517f57f447ce00000000000000000000000000000000000000000000000000000000815260040161193b919061391a565b60405180910390fd5b600073ffffffffffffffffffffffffffffffffffffffff168573ffffffffffffffffffffffffffffffffffffffff16036119b65760006040517f01a835140000000000000000000000000000000000000000000000000000000081526004016119ad919061391a565b60405180910390fd5b6000806119c38585611bc2565b915091506119d48787848487611b10565b50505050505050565b60007fd9b67a26000000000000000000000000000000000000000000000000000000007bffffffffffffffffffffffffffffffffffffffffffffffffffffffff1916827bffffffffffffffffffffffffffffffffffffffffffffffffffffffff19161480611aa857507f0e89341c000000000000000000000000000000000000000000000000000000007bffffffffffffffffffffffffffffffffffffffffffffffffffffffff1916827bffffffffffffffffffffffffffffffffffffffffffffffffffffffff1916145b80611ab85750611ab782611bf2565b5b9050919050565b611ac98282610bea565b611b0c5780826040517fe2517d3f000000000000000000000000000000000000000000000000000000008152600401611b03929190613935565b60405180910390fd5b5050565b611b1c85858585611c5c565b600073ffffffffffffffffffffffffffffffffffffffff168473ffffffffffffffffffffffffffffffffffffffff1614611bbb576000611b5a6113bc565b90506001845103611baa576000611b7b6000866116b590919063ffffffff16565b90506000611b936000866116b590919063ffffffff16565b9050611ba3838989858589612004565b5050611bb9565b611bb88187878787876121b8565b5b505b5050505050565b60608060405191506001825283602083015260408201905060018152826020820152604081016040529250929050565b60007f01ffc9a7000000000000000000000000000000000000000000000000000000007bffffffffffffffffffffffffffffffffffffffffffffffffffffffff1916827bffffffffffffffffffffffffffffffffffffffffffffffffffffffff1916149050919050565b8051825114611ca657815181516040517f5b059991000000000000000000000000000000000000000000000000000000008152600401611c9d92919061306b565b60405180910390fd5b6000611cb06113bc565b905060005b8351811015611ebf576000611cd382866116b590919063ffffffff16565b90506000611cea83866116b590919063ffffffff16565b9050600073ffffffffffffffffffffffffffffffffffffffff168873ffffffffffffffffffffffffffffffffffffffff1614611e1757600080600084815260200190815260200160002060008a73ffffffffffffffffffffffffffffffffffffffff1673ffffffffffffffffffffffffffffffffffffffff16815260200190815260200160002054905081811015611dbf57888183856040517f03dee4c5000000000000000000000000000000000000000000000000000000008152600401611db6949392919061395e565b60405180910390fd5b81810360008085815260200190815260200160002060008b73ffffffffffffffffffffffffffffffffffffffff1673ffffffffffffffffffffffffffffffffffffffff16815260200190815260200160002081905550505b600073ffffffffffffffffffffffffffffffffffffffff168773ffffffffffffffffffffffffffffffffffffffff1614611eb2578060008084815260200190815260200160002060008973ffffffffffffffffffffffffffffffffffffffff1673ffffffffffffffffffffffffffffffffffffffff1681526020019081526020016000206000828254611eaa91906131ca565b925050819055505b5050806001019050611cb5565b506001835103611f7e576000611edf6000856116b590919063ffffffff16565b90506000611ef76000856116b590919063ffffffff16565b90508573ffffffffffffffffffffffffffffffffffffffff168773ffffffffffffffffffffffffffffffffffffffff168473ffffffffffffffffffffffffffffffffffffffff167fc3d58168c5ae7397731d063d5bbf3d657854427343f4c083240f7aacaa2d0f628585604051611f6f92919061306b565b60405180910390a45050611ffd565b8373ffffffffffffffffffffffffffffffffffffffff168573ffffffffffffffffffffffffffffffffffffffff168273ffffffffffffffffffffffffffffffffffffffff167f4a39dc06d4c0dbc64b70af90fd698a233a518aa5d07e595d983b8c0526c8f7fb8686604051611ff49291906139a3565b60405180910390a45b5050505050565b60008473ffffffffffffffffffffffffffffffffffffffff163b11156121b0578373ffffffffffffffffffffffffffffffffffffffff1663f23a6e6187878686866040518663ffffffff1660e01b8152600401612065959493929190613a2f565b6020604051808303816000875af19250505080156120a157506040513d601f19601f8201168201806040525081019061209e9190613a9e565b60015b612125573d80600081146120d1576040519150601f19603f3d011682016040523d82523d6000602084013e6120d6565b606091505b50600081510361211d57846040517f57f447ce000000000000000000000000000000000000000000000000000000008152600401612114919061391a565b60405180910390fd5b805160208201fd5b63f23a6e6160e01b7bffffffffffffffffffffffffffffffffffffffffffffffffffffffff1916817bffffffffffffffffffffffffffffffffffffffffffffffffffffffff1916146121ae57846040517f57f447ce0000000000000000000000000000000000000000000000000000000081526004016121a5919061391a565b60405180910390fd5b505b505050505050565b60008473ffffffffffffffffffffffffffffffffffffffff163b1115612364578373ffffffffffffffffffffffffffffffffffffffff1663bc197c8187878686866040518663ffffffff1660e01b8152600401612219959493929190613acb565b6020604051808303816000875af192505050801561225557506040513d601f19601f820116820180604052508101906122529190613a9e565b60015b6122d9573d8060008114612285576040519150601f19603f3d011682016040523d82523d6000602084013e61228a565b606091505b5060008151036122d157846040517f57f447ce0000000000000000000000000000000000000000000000000000000081526004016122c8919061391a565b60405180910390fd5b805160208201fd5b63bc197c8160e01b7bffffffffffffffffffffffffffffffffffffffffffffffffffffffff1916817bffffffffffffffffffffffffffffffffffffffffffffffffffffffff19161461236257846040517f57f447ce000000000000000000000000000000000000000000000000000000008152600401612359919061391a565b60405180910390fd5b505b505050505050565b6000604051905090565b600080fd5b600080fd5b600073ffffffffffffffffffffffffffffffffffffffff82169050919050565b60006123ab82612380565b9050919050565b6123bb816123a0565b81146123c657600080fd5b50565b6000813590506123d8816123b2565b92915050565b6000819050919050565b6123f1816123de565b81146123fc57600080fd5b50565b60008135905061240e816123e8565b92915050565b6000806040838503121561242b5761242a612376565b5b6000612439858286016123c9565b925050602061244a858286016123ff565b9150509250929050565b61245d816123de565b82525050565b60006020820190506124786000830184612454565b92915050565b60007fffffffff0000000000000000000000000000000000000000000000000000000082169050919050565b6124b38161247e565b81146124be57600080fd5b50565b6000813590506124d0816124aa565b92915050565b6000602082840312156124ec576124eb612376565b5b60006124fa848285016124c1565b91505092915050565b60008115159050919050565b61251881612503565b82525050565b6000602082019050612533600083018461250f565b92915050565b600080604083850312156125505761254f612376565b5b600061255e858286016123ff565b925050602061256f858286016123c9565b9150509250929050565b6000819050919050565b61258c81612579565b82525050565b60006020820190506125a76000830184612583565b92915050565b6000602082840312156125c3576125c2612376565b5b60006125d1848285016123ff565b91505092915050565b600081519050919050565b600082825260208201905092915050565b60005b838110156126145780820151818401526020810190506125f9565b60008484015250505050565b6000601f19601f8301169050919050565b600061263c826125da565b61264681856125e5565b93506126568185602086016125f6565b61265f81612620565b840191505092915050565b600060208201905081810360008301526126848184612631565b905092915050565b61269581612579565b81146126a057600080fd5b50565b6000813590506126b28161268c565b92915050565b6000602082840312156126ce576126cd612376565b5b60006126dc848285016126a3565b91505092915050565b600080fd5b7f4e487b7100000000000000000000000000000000000000000000000000000000600052604160045260246000fd5b61272282612620565b810181811067ffffffffffffffff82111715612741576127406126ea565b5b80604052505050565b600061275461236c565b90506127608282612719565b919050565b600067ffffffffffffffff8211156127805761277f6126ea565b5b602082029050602081019050919050565b600080fd5b60006127a96127a484612765565b61274a565b905080838252602082019050602084028301858111156127cc576127cb612791565b5b835b818110156127f557806127e188826123ff565b8452602084019350506020810190506127ce565b5050509392505050565b600082601f830112612814576128136126e5565b5b8135612824848260208601612796565b91505092915050565b600080fd5b600067ffffffffffffffff82111561284d5761284c6126ea565b5b61285682612620565b9050602081019050919050565b82818337600083830152505050565b600061288561288084612832565b61274a565b9050828152602081018484840111156128a1576128a061282d565b5b6128ac848285612863565b509392505050565b600082601f8301126128c9576128c86126e5565b5b81356128d9848260208601612872565b91505092915050565b600080600080600060a086880312156128fe576128fd612376565b5b600061290c888289016123c9565b955050602061291d888289016123c9565b945050604086013567ffffffffffffffff81111561293e5761293d61237b565b5b61294a888289016127ff565b935050606086013567ffffffffffffffff81111561296b5761296a61237b565b5b612977888289016127ff565b925050608086013567ffffffffffffffff8111156129985761299761237b565b5b6129a4888289016128b4565b9150509295509295909350565b600080604083850312156129c8576129c7612376565b5b60006129d6858286016126a3565b92505060206129e7858286016123c9565b9150509250929050565b600067ffffffffffffffff821115612a0c57612a0b6126ea565b5b602082029050602081019050919050565b6000612a30612a2b846129f1565b61274a565b90508083825260208201905060208402830185811115612a5357612a52612791565b5b835b81811015612a7c5780612a6888826123c9565b845260208401935050602081019050612a55565b5050509392505050565b600082601f830112612a9b57612a9a6126e5565b5b8135612aab848260208601612a1d565b91505092915050565b60008060408385031215612acb57612aca612376565b5b600083013567ffffffffffffffff811115612ae957612ae861237b565b5b612af585828601612a86565b925050602083013567ffffffffffffffff811115612b1657612b1561237b565b5b612b22858286016127ff565b9150509250929050565b600081519050919050565b600082825260208201905092915050565b6000819050602082019050919050565b612b61816123de565b82525050565b6000612b738383612b58565b60208301905092915050565b6000602082019050919050565b6000612b9782612b2c565b612ba18185612b37565b9350612bac83612b48565b8060005b83811015612bdd578151612bc48882612b67565b9750612bcf83612b7f565b925050600181019050612bb0565b5085935050505092915050565b60006020820190508181036000830152612c048184612b8c565b905092915050565b60008060408385031215612c2357612c22612376565b5b6000612c31858286016123ff565b9250506020612c42858286016123ff565b9150509250929050565b612c55816123a0565b82525050565b600060e082019050612c70600083018a612454565b612c7d6020830189612c4c565b8181036040830152612c8f8188612631565b9050612c9e6060830187612454565b612cab6080830186612454565b612cb860a0830185612454565b612cc560c083018461250f565b98975050505050505050565b600067ffffffffffffffff821115612cec57612ceb6126ea565b5b612cf582612620565b9050602081019050919050565b6000612d15612d1084612cd1565b61274a565b905082815260208101848484011115612d3157612d3061282d565b5b612d3c848285612863565b509392505050565b600082601f830112612d5957612d586126e5565b5b8135612d69848260208601612d02565b91505092915050565b600080600060608486031215612d8b57612d8a612376565b5b600084013567ffffffffffffffff811115612da957612da861237b565b5b612db586828701612d44565b9350506020612dc6868287016123ff565b9250506040612dd7868287016123ff565b9150509250925092565b612dea81612503565b8114612df557600080fd5b50565b600081359050612e0781612de1565b92915050565b60008060408385031215612e2457612e23612376565b5b6000612e32858286016123c9565b9250506020612e4385828601612df8565b9150509250929050565b60008060408385031215612e6457612e63612376565b5b6000612e72858286016123c9565b9250506020612e83858286016123c9565b9150509250929050565b600080600080600060a08688031215612ea957612ea8612376565b5b6000612eb7888289016123c9565b9550506020612ec8888289016123c9565b9450506040612ed9888289016123ff565b9350506060612eea888289016123ff565b925050608086013567ffffffffffffffff811115612f0b57612f0a61237b565b5b612f17888289016128b4565b9150509295509295909350565b7f4e6f2066756e647320746f207769746864726177000000000000000000000000600082015250565b6000612f5a6014836125e5565b9150612f6582612f24565b602082019050919050565b60006020820190508181036000830152612f8981612f4d565b9050919050565b600081905092915050565b50565b6000612fab600083612f90565b9150612fb682612f9b565b600082019050919050565b6000612fcc82612f9e565b9150819050919050565b7f5472616e73666572206661696c65642e00000000000000000000000000000000600082015250565b600061300c6010836125e5565b915061301782612fd6565b602082019050919050565b6000602082019050818103600083015261303b81612fff565b9050919050565b60006040820190506130576000830185612c4c565b6130646020830184612c4c565b9392505050565b60006040820190506130806000830185612454565b61308d6020830184612454565b9392505050565b7f4e487b7100000000000000000000000000000000000000000000000000000000600052603260045260246000fd5b7f4576656e7420646f6573206e6f74206578697374000000000000000000000000600082015250565b60006130f96014836125e5565b9150613104826130c3565b602082019050919050565b60006020820190508181036000830152613128816130ec565b9050919050565b7f4576656e742073616c657320617265206e6f7420616374697665000000000000600082015250565b6000613165601a836125e5565b91506131708261312f565b602082019050919050565b6000602082019050818103600083015261319481613158565b9050919050565b7f4e487b7100000000000000000000000000000000000000000000000000000000600052601160045260246000fd5b60006131d5826123de565b91506131e0836123de565b92508282019050808211156131f8576131f761319b565b5b92915050565b7f4e6f7420656e6f756768207469636b657473206c656674000000000000000000600082015250565b60006132346017836125e5565b915061323f826131fe565b602082019050919050565b6000602082019050818103600083015261326381613227565b9050919050565b6000613275826123de565b9150613280836123de565b925082820261328e816123de565b915082820484148315176132a5576132a461319b565b5b5092915050565b7f496e636f727265637420616d6f756e74206f66204d415449432073656e740000600082015250565b60006132e2601e836125e5565b91506132ed826132ac565b602082019050919050565b60006020820190508181036000830152613311816132d5565b9050919050565b7f4e487b7100000000000000000000000000000000000000000000000000000000600052602260045260246000fd5b6000600282049050600182168061335f57607f821691505b60208210810361337257613371613318565b5b50919050565b7f5469636b6574207072696365206d75737420626520677265617465722074686160008201527f6e207a65726f0000000000000000000000000000000000000000000000000000602082015250565b60006133d46026836125e5565b91506133df82613378565b604082019050919050565b60006020820190508181036000830152613403816133c7565b9050919050565b7f546f74616c20737570706c79206d75737420626520677265617465722074686160008201527f6e207a65726f0000000000000000000000000000000000000000000000000000602082015250565b60006134666026836125e5565b91506134718261340a565b604082019050919050565b6000602082019050818103600083015261349581613459565b9050919050565b60006134a7826123de565b91507fffffffffffffffffffffffffffffffffffffffffffffffffffffffffffffffff82036134d9576134d861319b565b5b600182019050919050565b60008190508160005260206000209050919050565b60006020601f8301049050919050565b600082821b905092915050565b6000600883026135467fffffffffffffffffffffffffffffffffffffffffffffffffffffffffffffffff82613509565b6135508683613509565b95508019841693508086168417925050509392505050565b6000819050919050565b600061358d613588613583846123de565b613568565b6123de565b9050919050565b6000819050919050565b6135a783613572565b6135bb6135b382613594565b848454613516565b825550505050565b600090565b6135d06135c3565b6135db81848461359e565b505050565b5b818110156135ff576135f46000826135c8565b6001810190506135e1565b5050565b601f82111561364457613615816134e4565b61361e846134f9565b8101602085101561362d578190505b613641613639856134f9565b8301826135e0565b50505b505050565b600082821c905092915050565b600061366760001984600802613649565b1980831691505092915050565b60006136808383613656565b9150826002028217905092915050565b613699826125da565b67ffffffffffffffff8111156136b2576136b16126ea565b5b6136bc8254613347565b6136c7828285613603565b600060209050601f8311600181146136fa57600084156136e8578287015190505b6136f28582613674565b86555061375a565b601f198416613708866134e4565b60005b828110156137305784890151825560018201915060208501945060208101905061370b565b8683101561374d5784890151613749601f891682613656565b8355505b6001600288020188555050505b505050505050565b6000606082019050818103600083015261377c8186612631565b905061378b6020830185612454565b6137986040830184612454565b949350505050565b7f486f6c64657220646f6573206e6f74206f776e20616e79207469636b6574732060008201527f666f722074686973206576656e74000000000000000000000000000000000000602082015250565b60006137fc602e836125e5565b9150613807826137a0565b604082019050919050565b6000602082019050818103600083015261382b816137ef565b9050919050565b7f416c6c207469636b65747320666f72207468697320686f6c646572206861766560008201527f206265656e2072656465656d6564000000000000000000000000000000000000602082015250565b600061388e602e836125e5565b915061389982613832565b604082019050919050565b600060208201905081810360008301526138bd81613881565b9050919050565b6000819050919050565b60006138e96138e46138df846138c4565b613568565b6123de565b9050919050565b6138f9816138ce565b82525050565b600060208201905061391460008301846138f0565b92915050565b600060208201905061392f6000830184612c4c565b92915050565b600060408201905061394a6000830185612c4c565b6139576020830184612583565b9392505050565b60006080820190506139736000830187612c4c565b6139806020830186612454565b61398d6040830185612454565b61399a6060830184612454565b95945050505050565b600060408201905081810360008301526139bd8185612b8c565b905081810360208301526139d18184612b8c565b90509392505050565b600081519050919050565b600082825260208201905092915050565b6000613a01826139da565b613a0b81856139e5565b9350613a1b8185602086016125f6565b613a2481612620565b840191505092915050565b600060a082019050613a446000830188612c4c565b613a516020830187612c4c565b613a5e6040830186612454565b613a6b6060830185612454565b8181036080830152613a7d81846139f6565b90509695505050505050565b600081519050613a98816124aa565b92915050565b600060208284031215613ab457613ab3612376565b5b6000613ac284828501613a89565b91505092915050565b600060a082019050613ae06000830188612c4c565b613aed6020830187612c4c565b8181036040830152613aff8186612b8c565b90508181036060830152613b138185612b8c565b90508181036080830152613b2781846139f6565b9050969550505050505056fea2646970667358221220c8be77b0494d718b1aa8f82a4ef284689c481354dbca0cf7ac7117658a7d837564736f6c63430008180033",
    "linkReferences": {},
    "deployedLinkReferences": {}
}