{
  "_format": "hh-sol-artifact-1",
  "contractName": "TicketMaster",
  "sourceName": "contracts/TicketMaster.sol",
  "abi": [
    {
      "inputs": [],
      "stateMutability": "nonpayable",
      "type": "constructor"
    },
    {
      "inputs": [],
      "name": "AccessControlBadConfirmation",
      "type": "error"
    },
    {
      "inputs": [
        {
          "internalType": "address",
          "name": "account",
          "type": "address"
        },
        {
          "internalType": "bytes32",
          "name": "neededRole",
          "type": "bytes32"
        }
      ],
      "name": "AccessControlUnauthorizedAccount",
      "type": "error"
    },
    {
      "inputs": [
        {
          "internalType": "address",
          "name": "sender",
          "type": "address"
        },
        {
          "internalType": "uint256",
          "name": "balance",
          "type": "uint256"
        },
        {
          "internalType": "uint256",
          "name": "needed",
          "type": "uint256"
        },
        {
          "internalType": "uint256",
          "name": "tokenId",
          "type": "uint256"
        }
      ],
      "name": "ERC1155InsufficientBalance",
      "type": "error"
    },
    {
      "inputs": [
        {
          "internalType": "address",
          "name": "approver",
          "type": "address"
        }
      ],
      "name": "ERC1155InvalidApprover",
      "type": "error"
    },
    {
      "inputs": [
        {
          "internalType": "uint256",
          "name": "idsLength",
          "type": "uint256"
        },
        {
          "internalType": "uint256",
          "name": "valuesLength",
          "type": "uint256"
        }
      ],
      "name": "ERC1155InvalidArrayLength",
      "type": "error"
    },
    {
      "inputs": [
        {
          "internalType": "address",
          "name": "operator",
          "type": "address"
        }
      ],
      "name": "ERC1155InvalidOperator",
      "type": "error"
    },
    {
      "inputs": [
        {
          "internalType": "address",
          "name": "receiver",
          "type": "address"
        }
      ],
      "name": "ERC1155InvalidReceiver",
      "type": "error"
    },
    {
      "inputs": [
        {
          "internalType": "address",
          "name": "sender",
          "type": "address"
        }
      ],
      "name": "ERC1155InvalidSender",
      "type": "error"
    },
    {
      "inputs": [
        {
          "internalType": "address",
          "name": "operator",
          "type": "address"
        },
        {
          "internalType": "address",
          "name": "owner",
          "type": "address"
        }
      ],
      "name": "ERC1155MissingApprovalForAll",
      "type": "error"
    },
    {
      "inputs": [],
      "name": "ReentrancyGuardReentrantCall",
      "type": "error"
    },
    {
      "anonymous": false,
      "inputs": [
        {
          "indexed": true,
          "internalType": "address",
          "name": "account",
          "type": "address"
        },
        {
          "indexed": true,
          "internalType": "address",
          "name": "operator",
          "type": "address"
        },
        {
          "indexed": false,
          "internalType": "bool",
          "name": "approved",
          "type": "bool"
        }
      ],
      "name": "ApprovalForAll",
      "type": "event"
    },
    {
      "anonymous": false,
      "inputs": [
        {
          "indexed": true,
          "internalType": "uint256",
          "name": "eventId",
          "type": "uint256"
        },
        {
          "indexed": false,
          "internalType": "string",
          "name": "name",
          "type": "string"
        },
        {
          "indexed": true,
          "internalType": "address",
          "name": "organizer",
          "type": "address"
        },
        {
          "indexed": false,
          "internalType": "uint256",
          "name": "price",
          "type": "uint256"
        },
        {
          "indexed": false,
          "internalType": "uint256",
          "name": "supply",
          "type": "uint256"
        }
      ],
      "name": "EventCreated",
      "type": "event"
    },
    {
      "anonymous": false,
      "inputs": [
        {
          "indexed": true,
          "internalType": "bytes32",
          "name": "role",
          "type": "bytes32"
        },
        {
          "indexed": true,
          "internalType": "bytes32",
          "name": "previousAdminRole",
          "type": "bytes32"
        },
        {
          "indexed": true,
          "internalType": "bytes32",
          "name": "newAdminRole",
          "type": "bytes32"
        }
      ],
      "name": "RoleAdminChanged",
      "type": "event"
    },
    {
      "anonymous": false,
      "inputs": [
        {
          "indexed": true,
          "internalType": "bytes32",
          "name": "role",
          "type": "bytes32"
        },
        {
          "indexed": true,
          "internalType": "address",
          "name": "account",
          "type": "address"
        },
        {
          "indexed": true,
          "internalType": "address",
          "name": "sender",
          "type": "address"
        }
      ],
      "name": "RoleGranted",
      "type": "event"
    },
    {
      "anonymous": false,
      "inputs": [
        {
          "indexed": true,
          "internalType": "bytes32",
          "name": "role",
          "type": "bytes32"
        },
        {
          "indexed": true,
          "internalType": "address",
          "name": "account",
          "type": "address"
        },
        {
          "indexed": true,
          "internalType": "address",
          "name": "sender",
          "type": "address"
        }
      ],
      "name": "RoleRevoked",
      "type": "event"
    },
    {
      "anonymous": false,
      "inputs": [
        {
          "indexed": true,
          "internalType": "uint256",
          "name": "eventId",
          "type": "uint256"
        },
        {
          "indexed": true,
          "internalType": "address",
          "name": "ticketHolder",
          "type": "address"
        },
        {
          "indexed": false,
          "internalType": "uint256",
          "name": "quantity",
          "type": "uint256"
        }
      ],
      "name": "TicketRedeemed",
      "type": "event"
    },
    {
      "anonymous": false,
      "inputs": [
        {
          "indexed": true,
          "internalType": "uint256",
          "name": "eventId",
          "type": "uint256"
        },
        {
          "indexed": true,
          "internalType": "address",
          "name": "buyer",
          "type": "address"
        },
        {
          "indexed": false,
          "internalType": "uint256",
          "name": "quantity",
          "type": "uint256"
        }
      ],
      "name": "TicketsPurchased",
      "type": "event"
    },
    {
      "anonymous": false,
      "inputs": [
        {
          "indexed": true,
          "internalType": "address",
          "name": "operator",
          "type": "address"
        },
        {
          "indexed": true,
          "internalType": "address",
          "name": "from",
          "type": "address"
        },
        {
          "indexed": true,
          "internalType": "address",
          "name": "to",
          "type": "address"
        },
        {
          "indexed": false,
          "internalType": "uint256[]",
          "name": "ids",
          "type": "uint256[]"
        },
        {
          "indexed": false,
          "internalType": "uint256[]",
          "name": "values",
          "type": "uint256[]"
        }
      ],
      "name": "TransferBatch",
      "type": "event"
    },
    {
      "anonymous": false,
      "inputs": [
        {
          "indexed": true,
          "internalType": "address",
          "name": "operator",
          "type": "address"
        },
        {
          "indexed": true,
          "internalType": "address",
          "name": "from",
          "type": "address"
        },
        {
          "indexed": true,
          "internalType": "address",
          "name": "to",
          "type": "address"
        },
        {
          "indexed": false,
          "internalType": "uint256",
          "name": "id",
          "type": "uint256"
        },
        {
          "indexed": false,
          "internalType": "uint256",
          "name": "value",
          "type": "uint256"
        }
      ],
      "name": "TransferSingle",
      "type": "event"
    },
    {
      "anonymous": false,
      "inputs": [
        {
          "indexed": false,
          "internalType": "string",
          "name": "value",
          "type": "string"
        },
        {
          "indexed": true,
          "internalType": "uint256",
          "name": "id",
          "type": "uint256"
        }
      ],
      "name": "URI",
      "type": "event"
    },
    {
      "inputs": [],
      "name": "DEFAULT_ADMIN_ROLE",
      "outputs": [
        {
          "internalType": "bytes32",
          "name": "",
          "type": "bytes32"
        }
      ],
      "stateMutability": "view",
      "type": "function"
    },
    {
      "inputs": [],
      "name": "ORGANIZER_ROLE",
      "outputs": [
        {
          "internalType": "bytes32",
          "name": "",
          "type": "bytes32"
        }
      ],
      "stateMutability": "view",
      "type": "function"
    },
    {
      "inputs": [],
      "name": "SCANNER_ROLE",
      "outputs": [
        {
          "internalType": "bytes32",
          "name": "",
          "type": "bytes32"
        }
      ],
      "stateMutability": "view",
      "type": "function"
    },
    {
      "inputs": [
        {
          "internalType": "address",
          "name": "account",
          "type": "address"
        },
        {
          "internalType": "uint256",
          "name": "id",
          "type": "uint256"
        }
      ],
      "name": "balanceOf",
      "outputs": [
        {
          "internalType": "uint256",
          "name": "",
          "type": "uint256"
        }
      ],
      "stateMutability": "view",
      "type": "function"
    },
    {
      "inputs": [
        {
          "internalType": "address[]",
          "name": "accounts",
          "type": "address[]"
        },
        {
          "internalType": "uint256[]",
          "name": "ids",
          "type": "uint256[]"
        }
      ],
      "name": "balanceOfBatch",
      "outputs": [
        {
          "internalType": "uint256[]",
          "name": "",
          "type": "uint256[]"
        }
      ],
      "stateMutability": "view",
      "type": "function"
    },
    {
      "inputs": [
        {
          "internalType": "uint256",
          "name": "_eventId",
          "type": "uint256"
        },
        {
          "internalType": "uint256",
          "name": "_quantity",
          "type": "uint256"
        }
      ],
      "name": "buyTickets",
      "outputs": [],
      "stateMutability": "payable",
      "type": "function"
    },
    {
      "inputs": [
        {
          "internalType": "string",
          "name": "_name",
          "type": "string"
        },
        {
          "internalType": "uint256",
          "name": "_ticketPrice",
          "type": "uint256"
        },
        {
          "internalType": "uint256",
          "name": "_totalSupply",
          "type": "uint256"
        }
      ],
      "name": "createEvent",
      "outputs": [],
      "stateMutability": "nonpayable",
      "type": "function"
    },
    {
      "inputs": [
        {
          "internalType": "uint256",
          "name": "",
          "type": "uint256"
        }
      ],
      "name": "eventInfo",
      "outputs": [
        {
          "internalType": "uint256",
          "name": "eventId",
          "type": "uint256"
        },
        {
          "internalType": "address",
          "name": "organizer",
          "type": "address"
        },
        {
          "internalType": "string",
          "name": "name",
          "type": "string"
        },
        {
          "internalType": "uint256",
          "name": "ticketPrice",
          "type": "uint256"
        },
        {
          "internalType": "uint256",
          "name": "totalSupply",
          "type": "uint256"
        },
        {
          "internalType": "uint256",
          "name": "ticketsSold",
          "type": "uint256"
        },
        {
          "internalType": "bool",
          "name": "isActive",
          "type": "bool"
        }
      ],
      "stateMutability": "view",
      "type": "function"
    },
    {
      "inputs": [],
      "name": "getEventCount",
      "outputs": [
        {
          "internalType": "uint256",
          "name": "",
          "type": "uint256"
        }
      ],
      "stateMutability": "view",
      "type": "function"
    },
    {
      "inputs": [
        {
          "internalType": "bytes32",
          "name": "role",
          "type": "bytes32"
        }
      ],
      "name": "getRoleAdmin",
      "outputs": [
        {
          "internalType": "bytes32",
          "name": "",
          "type": "bytes32"
        }
      ],
      "stateMutability": "view",
      "type": "function"
    },
    {
      "inputs": [
        {
          "internalType": "bytes32",
          "name": "role",
          "type": "bytes32"
        },
        {
          "internalType": "address",
          "name": "account",
          "type": "address"
        }
      ],
      "name": "grantRole",
      "outputs": [],
      "stateMutability": "nonpayable",
      "type": "function"
    },
    {
      "inputs": [
        {
          "internalType": "bytes32",
          "name": "_role",
          "type": "bytes32"
        },
        {
          "internalType": "address",
          "name": "_account",
          "type": "address"
        }
      ],
      "name": "grantRoleTo",
      "outputs": [],
      "stateMutability": "nonpayable",
      "type": "function"
    },
    {
      "inputs": [
        {
          "internalType": "bytes32",
          "name": "role",
          "type": "bytes32"
        },
        {
          "internalType": "address",
          "name": "account",
          "type": "address"
        }
      ],
      "name": "hasRole",
      "outputs": [
        {
          "internalType": "bool",
          "name": "",
          "type": "bool"
        }
      ],
      "stateMutability": "view",
      "type": "function"
    },
    {
      "inputs": [
        {
          "internalType": "address",
          "name": "account",
          "type": "address"
        },
        {
          "internalType": "address",
          "name": "operator",
          "type": "address"
        }
      ],
      "name": "isApprovedForAll",
      "outputs": [
        {
          "internalType": "bool",
          "name": "",
          "type": "bool"
        }
      ],
      "stateMutability": "view",
      "type": "function"
    },
    {
      "inputs": [
        {
          "internalType": "uint256",
          "name": "_eventId",
          "type": "uint256"
        },
        {
          "internalType": "address",
          "name": "_ticketHolder",
          "type": "address"
        }
      ],
      "name": "redeemTicket",
      "outputs": [],
      "stateMutability": "nonpayable",
      "type": "function"
    },
    {
      "inputs": [
        {
          "internalType": "uint256",
          "name": "",
          "type": "uint256"
        },
        {
          "internalType": "address",
          "name": "",
          "type": "address"
        }
      ],
      "name": "redeemedTickets",
      "outputs": [
        {
          "internalType": "uint256",
          "name": "",
          "type": "uint256"
        }
      ],
      "stateMutability": "view",
      "type": "function"
    },
    {
      "inputs": [
        {
          "internalType": "bytes32",
          "name": "role",
          "type": "bytes32"
        },
        {
          "internalType": "address",
          "name": "callerConfirmation",
          "type": "address"
        }
      ],
      "name": "renounceRole",
      "outputs": [],
      "stateMutability": "nonpayable",
      "type": "function"
    },
    {
      "inputs": [
        {
          "internalType": "bytes32",
          "name": "role",
          "type": "bytes32"
        },
        {
          "internalType": "address",
          "name": "account",
          "type": "address"
        }
      ],
      "name": "revokeRole",
      "outputs": [],
      "stateMutability": "nonpayable",
      "type": "function"
    },
    {
      "inputs": [
        {
          "internalType": "address",
          "name": "from",
          "type": "address"
        },
        {
          "internalType": "address",
          "name": "to",
          "type": "address"
        },
        {
          "internalType": "uint256[]",
          "name": "ids",
          "type": "uint256[]"
        },
        {
          "internalType": "uint256[]",
          "name": "values",
          "type": "uint256[]"
        },
        {
          "internalType": "bytes",
          "name": "data",
          "type": "bytes"
        }
      ],
      "name": "safeBatchTransferFrom",
      "outputs": [],
      "stateMutability": "nonpayable",
      "type": "function"
    },
    {
      "inputs": [
        {
          "internalType": "address",
          "name": "from",
          "type": "address"
        },
        {
          "internalType": "address",
          "name": "to",
          "type": "address"
        },
        {
          "internalType": "uint256",
          "name": "id",
          "type": "uint256"
        },
        {
          "internalType": "uint256",
          "name": "value",
          "type": "uint256"
        },
        {
          "internalType": "bytes",
          "name": "data",
          "type": "bytes"
        }
      ],
      "name": "safeTransferFrom",
      "outputs": [],
      "stateMutability": "nonpayable",
      "type": "function"
    },
    {
      "inputs": [
        {
          "internalType": "address",
          "name": "operator",
          "type": "address"
        },
        {
          "internalType": "bool",
          "name": "approved",
          "type": "bool"
        }
      ],
      "name": "setApprovalForAll",
      "outputs": [],
      "stateMutability": "nonpayable",
      "type": "function"
    },
    {
      "inputs": [
        {
          "internalType": "bytes4",
          "name": "interfaceId",
          "type": "bytes4"
        }
      ],
      "name": "supportsInterface",
      "outputs": [
        {
          "internalType": "bool",
          "name": "",
          "type": "bool"
        }
      ],
      "stateMutability": "view",
      "type": "function"
    },
    {
      "inputs": [
        {
          "internalType": "uint256",
          "name": "",
          "type": "uint256"
        }
      ],
      "name": "uri",
      "outputs": [
        {
          "internalType": "string",
          "name": "",
          "type": "string"
        }
      ],
      "stateMutability": "view",
      "type": "function"
    },
    {
      "inputs": [],
      "name": "withdrawFunds",
      "outputs": [],
      "stateMutability": "nonpayable",
      "type": "function"
    }
  ],
  "bytecode": "0x60806040523480156200001157600080fd5b50604051806020016040528060008152506200003381620000be60201b60201c565b506001600481905550620000516000801b33620000d360201b60201c565b50620000847f4d2e7a1e3f5dd6e203f087b15756ccf0e4ccd947fe1b639a38540089a1e47f6333620000d360201b60201c565b50620000b77fa9b81438e9053a522b683603c102f65503853bc7aa82f89a130662d957c081fb33620000d360201b60201c565b50620005ab565b8060029081620000cf9190620004c4565b5050565b6000620000e78383620001d760201b60201c565b620001cc5760016003600085815260200190815260200160002060000160008473ffffffffffffffffffffffffffffffffffffffff1673ffffffffffffffffffffffffffffffffffffffff16815260200190815260200160002060006101000a81548160ff021916908315150217905550620001686200024260201b60201c565b73ffffffffffffffffffffffffffffffffffffffff168273ffffffffffffffffffffffffffffffffffffffff16847f2f8788117e7eff1d82e926ec794901d17c78024a50270940304540a733656f0d60405160405180910390a460019050620001d1565b600090505b92915050565b60006003600084815260200190815260200160002060000160008373ffffffffffffffffffffffffffffffffffffffff1673ffffffffffffffffffffffffffffffffffffffff16815260200190815260200160002060009054906101000a900460ff16905092915050565b600033905090565b600081519050919050565b7f4e487b7100000000000000000000000000000000000000000000000000000000600052604160045260246000fd5b7f4e487b7100000000000000000000000000000000000000000000000000000000600052602260045260246000fd5b60006002820490506001821680620002cc57607f821691505b602082108103620002e257620002e162000284565b5b50919050565b60008190508160005260206000209050919050565b60006020601f8301049050919050565b600082821b905092915050565b6000600883026200034c7fffffffffffffffffffffffffffffffffffffffffffffffffffffffffffffffff826200030d565b6200035886836200030d565b95508019841693508086168417925050509392505050565b6000819050919050565b6000819050919050565b6000620003a56200039f620003998462000370565b6200037a565b62000370565b9050919050565b6000819050919050565b620003c18362000384565b620003d9620003d082620003ac565b8484546200031a565b825550505050565b600090565b620003f0620003e1565b620003fd818484620003b6565b505050565b5b81811015620004255762000419600082620003e6565b60018101905062000403565b5050565b601f82111562000474576200043e81620002e8565b6200044984620002fd565b8101602085101562000459578190505b620004716200046885620002fd565b83018262000402565b50505b505050565b600082821c905092915050565b6000620004996000198460080262000479565b1980831691505092915050565b6000620004b4838362000486565b9150826002028217905092915050565b620004cf826200024a565b67ffffffffffffffff811115620004eb57620004ea62000255565b5b620004f78254620002b3565b6200050482828562000429565b600060209050601f8311600181146200053c576000841562000527578287015190505b620005338582620004a6565b865550620005a3565b601f1984166200054c86620002e8565b60005b8281101562000576578489015182556001820191506020850194506020810190506200054f565b8683101562000596578489015162000592601f89168262000486565b8355505b6001600288020188555050505b505050505050565b613ba980620005bb6000396000f3fe60806040526004361061014a5760003560e01c80638627df46116100b6578063a5e2361d1161006f578063a5e2361d146104be578063ba02021d146104e7578063d547741f14610510578063d9e48f5c14610539578063e985e9c514610564578063f242432a146105a15761014a565b80638627df46146103a557806391d14854146103c15780639d0c025b146103fe5780639e9580f614610441578063a217fddf1461046a578063a22cb465146104955761014a565b8063248a9ca311610108578063248a9ca3146102855780632eb2c2d6146102c25780632f2ff15d146102eb57806336568abe146103145780634e1273f41461033d5780637909cb591461037a5761014a565b8062fdd58e1461014f57806301ffc9a71461018c5780630a1d8608146101c95780630c073cb5146102065780630e89341c1461023157806324600fc31461026e575b600080fd5b34801561015b57600080fd5b5061017660048036038101906101719190612454565b6105ca565b60405161018391906124a3565b60405180910390f35b34801561019857600080fd5b506101b360048036038101906101ae9190612516565b610624565b6040516101c0919061255e565b60405180910390f35b3480156101d557600080fd5b506101f060048036038101906101eb9190612579565b610636565b6040516101fd91906124a3565b60405180910390f35b34801561021257600080fd5b5061021b61065b565b60405161022891906125d2565b60405180910390f35b34801561023d57600080fd5b50610258600480360381019061025391906125ed565b61067f565b60405161026591906126aa565b60405180910390f35b34801561027a57600080fd5b50610283610698565b005b34801561029157600080fd5b506102ac60048036038101906102a791906126f8565b6107ae565b6040516102b991906125d2565b60405180910390f35b3480156102ce57600080fd5b506102e960048036038101906102e49190612922565b6107ce565b005b3480156102f757600080fd5b50610312600480360381019061030d91906129f1565b610876565b005b34801561032057600080fd5b5061033b600480360381019061033691906129f1565b610898565b005b34801561034957600080fd5b50610364600480360381019061035f9190612af4565b610913565b6040516103719190612c2a565b60405180910390f35b34801561038657600080fd5b5061038f610a1c565b60405161039c91906125d2565b60405180910390f35b6103bf60048036038101906103ba9190612c4c565b610a40565b005b3480156103cd57600080fd5b506103e860048036038101906103e391906129f1565b610c20565b6040516103f5919061255e565b60405180910390f35b34801561040a57600080fd5b50610425600480360381019061042091906125ed565b610c8b565b6040516104389796959493929190612c9b565b60405180910390f35b34801561044d57600080fd5b5061046860048036038101906104639190612db2565b610d82565b005b34801561047657600080fd5b5061047f610fb3565b60405161048c91906125d2565b60405180910390f35b3480156104a157600080fd5b506104bc60048036038101906104b79190612e4d565b610fba565b005b3480156104ca57600080fd5b506104e560048036038101906104e091906129f1565b610fd0565b005b3480156104f357600080fd5b5061050e60048036038101906105099190612579565b610fed565b005b34801561051c57600080fd5b50610537600480360381019061053291906129f1565b6111b6565b005b34801561054557600080fd5b5061054e6111d8565b60405161055b91906124a3565b60405180910390f35b34801561057057600080fd5b5061058b60048036038101906105869190612e8d565b6111e2565b604051610598919061255e565b60405180910390f35b3480156105ad57600080fd5b506105c860048036038101906105c39190612ecd565b611276565b005b600080600083815260200190815260200160002060008473ffffffffffffffffffffffffffffffffffffffff1673ffffffffffffffffffffffffffffffffffffffff16815260200190815260200160002054905092915050565b600061062f8261131e565b9050919050565b6007602052816000526040600020602052806000526040600020600091509150505481565b7fa9b81438e9053a522b683603c102f65503853bc7aa82f89a130662d957c081fb81565b6060604051806020016040528060008152509050919050565b6106a0611398565b6000801b6106ad816113de565b6000479050600081116106f5576040517f08c379a00000000000000000000000000000000000000000000000000000000081526004016106ec90612fb0565b60405180910390fd5b60003373ffffffffffffffffffffffffffffffffffffffff168260405161071b90613001565b60006040518083038185875af1925050503d8060008114610758576040519150601f19603f3d011682016040523d82523d6000602084013e61075d565b606091505b50509050806107a1576040517f08c379a000000000000000000000000000000000000000000000000000000000815260040161079890613062565b60405180910390fd5b5050506107ac6113f2565b565b600060036000838152602001908152602001600020600101549050919050565b60006107d86113fc565b90508073ffffffffffffffffffffffffffffffffffffffff168673ffffffffffffffffffffffffffffffffffffffff161415801561081d575061081b86826111e2565b155b156108615780866040517fe237d922000000000000000000000000000000000000000000000000000000008152600401610858929190613082565b60405180910390fd5b61086e8686868686611404565b505050505050565b61087f826107ae565b610888816113de565b61089283836114fc565b50505050565b6108a06113fc565b73ffffffffffffffffffffffffffffffffffffffff168173ffffffffffffffffffffffffffffffffffffffff1614610904576040517f6697b23200000000000000000000000000000000000000000000000000000000815260040160405180910390fd5b61090e82826115ee565b505050565b6060815183511461095f57815183516040517f5b0599910000000000000000000000000000000000000000000000000000000081526004016109569291906130ab565b60405180910390fd5b6000835167ffffffffffffffff81111561097c5761097b61272a565b5b6040519080825280602002602001820160405280156109aa5781602001602082028036833780820191505090505b50905060005b8451811015610a11576109e76109cf82876116e190919063ffffffff16565b6109e283876116f590919063ffffffff16565b6105ca565b8282815181106109fa576109f96130d4565b5b6020026020010181815250508060010190506109b0565b508091505092915050565b7f4d2e7a1e3f5dd6e203f087b15756ccf0e4ccd947fe1b639a38540089a1e47f6381565b60006006600084815260200190815260200160002090506000816000015403610a9e576040517f08c379a0000000000000000000000000000000000000000000000000000000008152600401610a959061314f565b60405180910390fd5b8060060160009054906101000a900460ff16610aef576040517f08c379a0000000000000000000000000000000000000000000000000000000008152600401610ae6906131bb565b60405180910390fd5b818160050154610aff919061320a565b81600401541015610b45576040517f08c379a0000000000000000000000000000000000000000000000000000000008152600401610b3c9061328a565b60405180910390fd5b818160030154610b5591906132aa565b3414610b96576040517f08c379a0000000000000000000000000000000000000000000000000000000008152600401610b8d90613338565b60405180910390fd5b81816005016000828254610baa919061320a565b92505081905550610bcc33848460405180602001604052806000815250611709565b3373ffffffffffffffffffffffffffffffffffffffff16837ff7c58d5e745042ae3ed41454214210ae1bca7e4a2087c19a3fb2cfc0ed7648e784604051610c1391906124a3565b60405180910390a3505050565b60006003600084815260200190815260200160002060000160008373ffffffffffffffffffffffffffffffffffffffff1673ffffffffffffffffffffffffffffffffffffffff16815260200190815260200160002060009054906101000a900460ff16905092915050565b60066020528060005260406000206000915090508060000154908060010160009054906101000a900473ffffffffffffffffffffffffffffffffffffffff1690806002018054610cda90613387565b80601f0160208091040260200160405190810160405280929190818152602001828054610d0690613387565b8015610d535780601f10610d2857610100808354040283529160200191610d53565b820191906000526020600020905b815481529060010190602001808311610d3657829003601f168201915b5050505050908060030154908060040154908060050154908060060160009054906101000a900460ff16905087565b7f4d2e7a1e3f5dd6e203f087b15756ccf0e4ccd947fe1b639a38540089a1e47f63610dac816113de565b60008311610def576040517f08c379a0000000000000000000000000000000000000000000000000000000008152600401610de69061342a565b60405180910390fd5b60008211610e32576040517f08c379a0000000000000000000000000000000000000000000000000000000008152600401610e29906134bc565b60405180910390fd5b60056000815480929190610e45906134dc565b9190505550600060055490506040518060e001604052808281526020013373ffffffffffffffffffffffffffffffffffffffff1681526020018681526020018581526020018481526020016000815260200160011515815250600660008381526020019081526020016000206000820151816000015560208201518160010160006101000a81548173ffffffffffffffffffffffffffffffffffffffff021916908373ffffffffffffffffffffffffffffffffffffffff1602179055506040820151816002019081610f1791906136d0565b50606082015181600301556080820151816004015560a0820151816005015560c08201518160060160006101000a81548160ff0219169083151502179055509050503373ffffffffffffffffffffffffffffffffffffffff16817f81f945738beff591c3eab232e9f3265ce3f12263a2ec7acf84db8dc0fce26a27878787604051610fa4939291906137a2565b60405180910390a35050505050565b6000801b81565b610fcc610fc56113fc565b83836117a2565b5050565b6000801b610fdd816113de565b610fe783836114fc565b50505050565b7fa9b81438e9053a522b683603c102f65503853bc7aa82f89a130662d957c081fb611017816113de565b600061102383856105ca565b905060008111611068576040517f08c379a000000000000000000000000000000000000000000000000000000000815260040161105f90613852565b60405180910390fd5b6007600085815260200190815260200160002060008473ffffffffffffffffffffffffffffffffffffffff1673ffffffffffffffffffffffffffffffffffffffff1681526020019081526020016000205481116110fa576040517f08c379a00000000000000000000000000000000000000000000000000000000081526004016110f1906138e4565b60405180910390fd5b6007600085815260200190815260200160002060008473ffffffffffffffffffffffffffffffffffffffff1673ffffffffffffffffffffffffffffffffffffffff168152602001908152602001600020600081548092919061115b906134dc565b91905055508273ffffffffffffffffffffffffffffffffffffffff16847f577db72f216090dddc27ada8d4ad0fd6ab2c365a253821d43c50e4ba5b4f718460016040516111a8919061393f565b60405180910390a350505050565b6111bf826107ae565b6111c8816113de565b6111d283836115ee565b50505050565b6000600554905090565b6000600160008473ffffffffffffffffffffffffffffffffffffffff1673ffffffffffffffffffffffffffffffffffffffff16815260200190815260200160002060008373ffffffffffffffffffffffffffffffffffffffff1673ffffffffffffffffffffffffffffffffffffffff16815260200190815260200160002060009054906101000a900460ff16905092915050565b60006112806113fc565b90508073ffffffffffffffffffffffffffffffffffffffff168673ffffffffffffffffffffffffffffffffffffffff16141580156112c557506112c386826111e2565b155b156113095780866040517fe237d922000000000000000000000000000000000000000000000000000000008152600401611300929190613082565b60405180910390fd5b6113168686868686611912565b505050505050565b60007f7965db0b000000000000000000000000000000000000000000000000000000007bffffffffffffffffffffffffffffffffffffffffffffffffffffffff1916827bffffffffffffffffffffffffffffffffffffffffffffffffffffffff19161480611391575061139082611a1d565b5b9050919050565b6002600454036113d4576040517f3ee5aeb500000000000000000000000000000000000000000000000000000000815260040160405180910390fd5b6002600481905550565b6113ef816113ea6113fc565b611aff565b50565b6001600481905550565b600033905090565b600073ffffffffffffffffffffffffffffffffffffffff168473ffffffffffffffffffffffffffffffffffffffff16036114765760006040517f57f447ce00000000000000000000000000000000000000000000000000000000815260040161146d919061395a565b60405180910390fd5b600073ffffffffffffffffffffffffffffffffffffffff168573ffffffffffffffffffffffffffffffffffffffff16036114e85760006040517f01a835140000000000000000000000000000000000000000000000000000000081526004016114df919061395a565b60405180910390fd5b6114f58585858585611b50565b5050505050565b60006115088383610c20565b6115e35760016003600085815260200190815260200160002060000160008473ffffffffffffffffffffffffffffffffffffffff1673ffffffffffffffffffffffffffffffffffffffff16815260200190815260200160002060006101000a81548160ff0219169083151502179055506115806113fc565b73ffffffffffffffffffffffffffffffffffffffff168273ffffffffffffffffffffffffffffffffffffffff16847f2f8788117e7eff1d82e926ec794901d17c78024a50270940304540a733656f0d60405160405180910390a4600190506115e8565b600090505b92915050565b60006115fa8383610c20565b156116d65760006003600085815260200190815260200160002060000160008473ffffffffffffffffffffffffffffffffffffffff1673ffffffffffffffffffffffffffffffffffffffff16815260200190815260200160002060006101000a81548160ff0219169083151502179055506116736113fc565b73ffffffffffffffffffffffffffffffffffffffff168273ffffffffffffffffffffffffffffffffffffffff16847ff6391f5c32d9c69d2a47ea670b442974b53935d1edc7fd64eb21e047a839171b60405160405180910390a4600190506116db565b600090505b92915050565b600060208202602084010151905092915050565b600060208202602084010151905092915050565b600073ffffffffffffffffffffffffffffffffffffffff168473ffffffffffffffffffffffffffffffffffffffff160361177b5760006040517f57f447ce000000000000000000000000000000000000000000000000000000008152600401611772919061395a565b60405180910390fd5b6000806117888585611c02565b9150915061179a600087848487611b50565b505050505050565b600073ffffffffffffffffffffffffffffffffffffffff168273ffffffffffffffffffffffffffffffffffffffff16036118145760006040517fced3e10000000000000000000000000000000000000000000000000000000000815260040161180b919061395a565b60405180910390fd5b80600160008573ffffffffffffffffffffffffffffffffffffffff1673ffffffffffffffffffffffffffffffffffffffff16815260200190815260200160002060008473ffffffffffffffffffffffffffffffffffffffff1673ffffffffffffffffffffffffffffffffffffffff16815260200190815260200160002060006101000a81548160ff0219169083151502179055508173ffffffffffffffffffffffffffffffffffffffff168373ffffffffffffffffffffffffffffffffffffffff167f17307eab39ab6107e8899845ad3d59bd9653f200f220920489ca2b5937696c3183604051611905919061255e565b60405180910390a3505050565b600073ffffffffffffffffffffffffffffffffffffffff168473ffffffffffffffffffffffffffffffffffffffff16036119845760006040517f57f447ce00000000000000000000000000000000000000000000000000000000815260040161197b919061395a565b60405180910390fd5b600073ffffffffffffffffffffffffffffffffffffffff168573ffffffffffffffffffffffffffffffffffffffff16036119f65760006040517f01a835140000000000000000000000000000000000000000000000000000000081526004016119ed919061395a565b60405180910390fd5b600080611a038585611c02565b91509150611a148787848487611b50565b50505050505050565b60007fd9b67a26000000000000000000000000000000000000000000000000000000007bffffffffffffffffffffffffffffffffffffffffffffffffffffffff1916827bffffffffffffffffffffffffffffffffffffffffffffffffffffffff19161480611ae857507f0e89341c000000000000000000000000000000000000000000000000000000007bffffffffffffffffffffffffffffffffffffffffffffffffffffffff1916827bffffffffffffffffffffffffffffffffffffffffffffffffffffffff1916145b80611af85750611af782611c32565b5b9050919050565b611b098282610c20565b611b4c5780826040517fe2517d3f000000000000000000000000000000000000000000000000000000008152600401611b43929190613975565b60405180910390fd5b5050565b611b5c85858585611c9c565b600073ffffffffffffffffffffffffffffffffffffffff168473ffffffffffffffffffffffffffffffffffffffff1614611bfb576000611b9a6113fc565b90506001845103611bea576000611bbb6000866116f590919063ffffffff16565b90506000611bd36000866116f590919063ffffffff16565b9050611be3838989858589612044565b5050611bf9565b611bf88187878787876121f8565b5b505b5050505050565b60608060405191506001825283602083015260408201905060018152826020820152604081016040529250929050565b60007f01ffc9a7000000000000000000000000000000000000000000000000000000007bffffffffffffffffffffffffffffffffffffffffffffffffffffffff1916827bffffffffffffffffffffffffffffffffffffffffffffffffffffffff1916149050919050565b8051825114611ce657815181516040517f5b059991000000000000000000000000000000000000000000000000000000008152600401611cdd9291906130ab565b60405180910390fd5b6000611cf06113fc565b905060005b8351811015611eff576000611d1382866116f590919063ffffffff16565b90506000611d2a83866116f590919063ffffffff16565b9050600073ffffffffffffffffffffffffffffffffffffffff168873ffffffffffffffffffffffffffffffffffffffff1614611e5757600080600084815260200190815260200160002060008a73ffffffffffffffffffffffffffffffffffffffff1673ffffffffffffffffffffffffffffffffffffffff16815260200190815260200160002054905081811015611dff57888183856040517f03dee4c5000000000000000000000000000000000000000000000000000000008152600401611df6949392919061399e565b60405180910390fd5b81810360008085815260200190815260200160002060008b73ffffffffffffffffffffffffffffffffffffffff1673ffffffffffffffffffffffffffffffffffffffff16815260200190815260200160002081905550505b600073ffffffffffffffffffffffffffffffffffffffff168773ffffffffffffffffffffffffffffffffffffffff1614611ef2578060008084815260200190815260200160002060008973ffffffffffffffffffffffffffffffffffffffff1673ffffffffffffffffffffffffffffffffffffffff1681526020019081526020016000206000828254611eea919061320a565b925050819055505b5050806001019050611cf5565b506001835103611fbe576000611f1f6000856116f590919063ffffffff16565b90506000611f376000856116f590919063ffffffff16565b90508573ffffffffffffffffffffffffffffffffffffffff168773ffffffffffffffffffffffffffffffffffffffff168473ffffffffffffffffffffffffffffffffffffffff167fc3d58168c5ae7397731d063d5bbf3d657854427343f4c083240f7aacaa2d0f628585604051611faf9291906130ab565b60405180910390a4505061203d565b8373ffffffffffffffffffffffffffffffffffffffff168573ffffffffffffffffffffffffffffffffffffffff168273ffffffffffffffffffffffffffffffffffffffff167f4a39dc06d4c0dbc64b70af90fd698a233a518aa5d07e595d983b8c0526c8f7fb86866040516120349291906139e3565b60405180910390a45b5050505050565b60008473ffffffffffffffffffffffffffffffffffffffff163b11156121f0578373ffffffffffffffffffffffffffffffffffffffff1663f23a6e6187878686866040518663ffffffff1660e01b81526004016120a5959493929190613a6f565b6020604051808303816000875af19250505080156120e157506040513d601f19601f820116820180604052508101906120de9190613ade565b60015b612165573d8060008114612111576040519150601f19603f3d011682016040523d82523d6000602084013e612116565b606091505b50600081510361215d57846040517f57f447ce000000000000000000000000000000000000000000000000000000008152600401612154919061395a565b60405180910390fd5b805160208201fd5b63f23a6e6160e01b7bffffffffffffffffffffffffffffffffffffffffffffffffffffffff1916817bffffffffffffffffffffffffffffffffffffffffffffffffffffffff1916146121ee57846040517f57f447ce0000000000000000000000000000000000000000000000000000000081526004016121e5919061395a565b60405180910390fd5b505b505050505050565b60008473ffffffffffffffffffffffffffffffffffffffff163b11156123a4578373ffffffffffffffffffffffffffffffffffffffff1663bc197c8187878686866040518663ffffffff1660e01b8152600401612259959493929190613b0b565b6020604051808303816000875af192505050801561229557506040513d601f19601f820116820180604052508101906122929190613ade565b60015b612319573d80600081146122c5576040519150601f19603f3d011682016040523d82523d6000602084013e6122ca565b606091505b50600081510361231157846040517f57f447ce000000000000000000000000000000000000000000000000000000008152600401612308919061395a565b60405180910390fd5b805160208201fd5b63bc197c8160e01b7bffffffffffffffffffffffffffffffffffffffffffffffffffffffff1916817bffffffffffffffffffffffffffffffffffffffffffffffffffffffff1916146123a257846040517f57f447ce000000000000000000000000000000000000000000000000000000008152600401612399919061395a565b60405180910390fd5b505b505050505050565b6000604051905090565b600080fd5b600080fd5b600073ffffffffffffffffffffffffffffffffffffffff82169050919050565b60006123eb826123c0565b9050919050565b6123fb816123e0565b811461240657600080fd5b50565b600081359050612418816123f2565b92915050565b6000819050919050565b6124318161241e565b811461243c57600080fd5b50565b60008135905061244e81612428565b92915050565b6000806040838503121561246b5761246a6123b6565b5b600061247985828601612409565b925050602061248a8582860161243f565b9150509250929050565b61249d8161241e565b82525050565b60006020820190506124b86000830184612494565b92915050565b60007fffffffff0000000000000000000000000000000000000000000000000000000082169050919050565b6124f3816124be565b81146124fe57600080fd5b50565b600081359050612510816124ea565b92915050565b60006020828403121561252c5761252b6123b6565b5b600061253a84828501612501565b91505092915050565b60008115159050919050565b61255881612543565b82525050565b6000602082019050612573600083018461254f565b92915050565b600080604083850312156125905761258f6123b6565b5b600061259e8582860161243f565b92505060206125af85828601612409565b9150509250929050565b6000819050919050565b6125cc816125b9565b82525050565b60006020820190506125e760008301846125c3565b92915050565b600060208284031215612603576126026123b6565b5b60006126118482850161243f565b91505092915050565b600081519050919050565b600082825260208201905092915050565b60005b83811015612654578082015181840152602081019050612639565b60008484015250505050565b6000601f19601f8301169050919050565b600061267c8261261a565b6126868185612625565b9350612696818560208601612636565b61269f81612660565b840191505092915050565b600060208201905081810360008301526126c48184612671565b905092915050565b6126d5816125b9565b81146126e057600080fd5b50565b6000813590506126f2816126cc565b92915050565b60006020828403121561270e5761270d6123b6565b5b600061271c848285016126e3565b91505092915050565b600080fd5b7f4e487b7100000000000000000000000000000000000000000000000000000000600052604160045260246000fd5b61276282612660565b810181811067ffffffffffffffff821117156127815761278061272a565b5b80604052505050565b60006127946123ac565b90506127a08282612759565b919050565b600067ffffffffffffffff8211156127c0576127bf61272a565b5b602082029050602081019050919050565b600080fd5b60006127e96127e4846127a5565b61278a565b9050808382526020820190506020840283018581111561280c5761280b6127d1565b5b835b818110156128355780612821888261243f565b84526020840193505060208101905061280e565b5050509392505050565b600082601f83011261285457612853612725565b5b81356128648482602086016127d6565b91505092915050565b600080fd5b600067ffffffffffffffff82111561288d5761288c61272a565b5b61289682612660565b9050602081019050919050565b82818337600083830152505050565b60006128c56128c084612872565b61278a565b9050828152602081018484840111156128e1576128e061286d565b5b6128ec8482856128a3565b509392505050565b600082601f83011261290957612908612725565b5b81356129198482602086016128b2565b91505092915050565b600080600080600060a0868803121561293e5761293d6123b6565b5b600061294c88828901612409565b955050602061295d88828901612409565b945050604086013567ffffffffffffffff81111561297e5761297d6123bb565b5b61298a8882890161283f565b935050606086013567ffffffffffffffff8111156129ab576129aa6123bb565b5b6129b78882890161283f565b925050608086013567ffffffffffffffff8111156129d8576129d76123bb565b5b6129e4888289016128f4565b9150509295509295909350565b60008060408385031215612a0857612a076123b6565b5b6000612a16858286016126e3565b9250506020612a2785828601612409565b9150509250929050565b600067ffffffffffffffff821115612a4c57612a4b61272a565b5b602082029050602081019050919050565b6000612a70612a6b84612a31565b61278a565b90508083825260208201905060208402830185811115612a9357612a926127d1565b5b835b81811015612abc5780612aa88882612409565b845260208401935050602081019050612a95565b5050509392505050565b600082601f830112612adb57612ada612725565b5b8135612aeb848260208601612a5d565b91505092915050565b60008060408385031215612b0b57612b0a6123b6565b5b600083013567ffffffffffffffff811115612b2957612b286123bb565b5b612b3585828601612ac6565b925050602083013567ffffffffffffffff811115612b5657612b556123bb565b5b612b628582860161283f565b9150509250929050565b600081519050919050565b600082825260208201905092915050565b6000819050602082019050919050565b612ba18161241e565b82525050565b6000612bb38383612b98565b60208301905092915050565b6000602082019050919050565b6000612bd782612b6c565b612be18185612b77565b9350612bec83612b88565b8060005b83811015612c1d578151612c048882612ba7565b9750612c0f83612bbf565b925050600181019050612bf0565b5085935050505092915050565b60006020820190508181036000830152612c448184612bcc565b905092915050565b60008060408385031215612c6357612c626123b6565b5b6000612c718582860161243f565b9250506020612c828582860161243f565b9150509250929050565b612c95816123e0565b82525050565b600060e082019050612cb0600083018a612494565b612cbd6020830189612c8c565b8181036040830152612ccf8188612671565b9050612cde6060830187612494565b612ceb6080830186612494565b612cf860a0830185612494565b612d0560c083018461254f565b98975050505050505050565b600067ffffffffffffffff821115612d2c57612d2b61272a565b5b612d3582612660565b9050602081019050919050565b6000612d55612d5084612d11565b61278a565b905082815260208101848484011115612d7157612d7061286d565b5b612d7c8482856128a3565b509392505050565b600082601f830112612d9957612d98612725565b5b8135612da9848260208601612d42565b91505092915050565b600080600060608486031215612dcb57612dca6123b6565b5b600084013567ffffffffffffffff811115612de957612de86123bb565b5b612df586828701612d84565b9350506020612e068682870161243f565b9250506040612e178682870161243f565b9150509250925092565b612e2a81612543565b8114612e3557600080fd5b50565b600081359050612e4781612e21565b92915050565b60008060408385031215612e6457612e636123b6565b5b6000612e7285828601612409565b9250506020612e8385828601612e38565b9150509250929050565b60008060408385031215612ea457612ea36123b6565b5b6000612eb285828601612409565b9250506020612ec385828601612409565b9150509250929050565b600080600080600060a08688031215612ee957612ee86123b6565b5b6000612ef788828901612409565b9550506020612f0888828901612409565b9450506040612f198882890161243f565b9350506060612f2a8882890161243f565b925050608086013567ffffffffffffffff811115612f4b57612f4a6123bb565b5b612f57888289016128f4565b9150509295509295909350565b7f4e6f2066756e647320746f207769746864726177000000000000000000000000600082015250565b6000612f9a601483612625565b9150612fa582612f64565b602082019050919050565b60006020820190508181036000830152612fc981612f8d565b9050919050565b600081905092915050565b50565b6000612feb600083612fd0565b9150612ff682612fdb565b600082019050919050565b600061300c82612fde565b9150819050919050565b7f5472616e73666572206661696c65642e00000000000000000000000000000000600082015250565b600061304c601083612625565b915061305782613016565b602082019050919050565b6000602082019050818103600083015261307b8161303f565b9050919050565b60006040820190506130976000830185612c8c565b6130a46020830184612c8c565b9392505050565b60006040820190506130c06000830185612494565b6130cd6020830184612494565b9392505050565b7f4e487b7100000000000000000000000000000000000000000000000000000000600052603260045260246000fd5b7f4576656e7420646f6573206e6f74206578697374000000000000000000000000600082015250565b6000613139601483612625565b915061314482613103565b602082019050919050565b600060208201905081810360008301526131688161312c565b9050919050565b7f4576656e742073616c657320617265206e6f7420616374697665000000000000600082015250565b60006131a5601a83612625565b91506131b08261316f565b602082019050919050565b600060208201905081810360008301526131d481613198565b9050919050565b7f4e487b7100000000000000000000000000000000000000000000000000000000600052601160045260246000fd5b60006132158261241e565b91506132208361241e565b9250828201905080821115613238576132376131db565b5b92915050565b7f4e6f7420656e6f756768207469636b657473206c656674000000000000000000600082015250565b6000613274601783612625565b915061327f8261323e565b602082019050919050565b600060208201905081810360008301526132a381613267565b9050919050565b60006132b58261241e565b91506132c08361241e565b92508282026132ce8161241e565b915082820484148315176132e5576132e46131db565b5b5092915050565b7f496e636f727265637420616d6f756e74206f66204d415449432073656e740000600082015250565b6000613322601e83612625565b915061332d826132ec565b602082019050919050565b6000602082019050818103600083015261335181613315565b9050919050565b7f4e487b7100000000000000000000000000000000000000000000000000000000600052602260045260246000fd5b6000600282049050600182168061339f57607f821691505b6020821081036133b2576133b1613358565b5b50919050565b7f5469636b6574207072696365206d75737420626520677265617465722074686160008201527f6e207a65726f0000000000000000000000000000000000000000000000000000602082015250565b6000613414602683612625565b915061341f826133b8565b604082019050919050565b6000602082019050818103600083015261344381613407565b9050919050565b7f546f74616c20737570706c79206d75737420626520677265617465722074686160008201527f6e207a65726f0000000000000000000000000000000000000000000000000000602082015250565b60006134a6602683612625565b91506134b18261344a565b604082019050919050565b600060208201905081810360008301526134d581613499565b9050919050565b60006134e78261241e565b91507fffffffffffffffffffffffffffffffffffffffffffffffffffffffffffffffff8203613519576135186131db565b5b600182019050919050565b60008190508160005260206000209050919050565b60006020601f8301049050919050565b600082821b905092915050565b6000600883026135867fffffffffffffffffffffffffffffffffffffffffffffffffffffffffffffffff82613549565b6135908683613549565b95508019841693508086168417925050509392505050565b6000819050919050565b60006135cd6135c86135c38461241e565b6135a8565b61241e565b9050919050565b6000819050919050565b6135e7836135b2565b6135fb6135f3826135d4565b848454613556565b825550505050565b600090565b613610613603565b61361b8184846135de565b505050565b5b8181101561363f57613634600082613608565b600181019050613621565b5050565b601f8211156136845761365581613524565b61365e84613539565b8101602085101561366d578190505b61368161367985613539565b830182613620565b50505b505050565b600082821c905092915050565b60006136a760001984600802613689565b1980831691505092915050565b60006136c08383613696565b9150826002028217905092915050565b6136d98261261a565b67ffffffffffffffff8111156136f2576136f161272a565b5b6136fc8254613387565b613707828285613643565b600060209050601f83116001811461373a5760008415613728578287015190505b61373285826136b4565b86555061379a565b601f19841661374886613524565b60005b828110156137705784890151825560018201915060208501945060208101905061374b565b8683101561378d5784890151613789601f891682613696565b8355505b6001600288020188555050505b505050505050565b600060608201905081810360008301526137bc8186612671565b90506137cb6020830185612494565b6137d86040830184612494565b949350505050565b7f486f6c64657220646f6573206e6f74206f776e20616e79207469636b6574732060008201527f666f722074686973206576656e74000000000000000000000000000000000000602082015250565b600061383c602e83612625565b9150613847826137e0565b604082019050919050565b6000602082019050818103600083015261386b8161382f565b9050919050565b7f416c6c207469636b65747320666f72207468697320686f6c646572206861766560008201527f206265656e2072656465656d6564000000000000000000000000000000000000602082015250565b60006138ce602e83612625565b91506138d982613872565b604082019050919050565b600060208201905081810360008301526138fd816138c1565b9050919050565b6000819050919050565b600061392961392461391f84613904565b6135a8565b61241e565b9050919050565b6139398161390e565b82525050565b60006020820190506139546000830184613930565b92915050565b600060208201905061396f6000830184612c8c565b92915050565b600060408201905061398a6000830185612c8c565b61399760208301846125c3565b9392505050565b60006080820190506139b36000830187612c8c565b6139c06020830186612494565b6139cd6040830185612494565b6139da6060830184612494565b95945050505050565b600060408201905081810360008301526139fd8185612bcc565b90508181036020830152613a118184612bcc565b90509392505050565b600081519050919050565b600082825260208201905092915050565b6000613a4182613a1a565b613a4b8185613a25565b9350613a5b818560208601612636565b613a6481612660565b840191505092915050565b600060a082019050613a846000830188612c8c565b613a916020830187612c8c565b613a9e6040830186612494565b613aab6060830185612494565b8181036080830152613abd8184613a36565b90509695505050505050565b600081519050613ad8816124ea565b92915050565b600060208284031215613af457613af36123b6565b5b6000613b0284828501613ac9565b91505092915050565b600060a082019050613b206000830188612c8c565b613b2d6020830187612c8c565b8181036040830152613b3f8186612bcc565b90508181036060830152613b538185612bcc565b90508181036080830152613b678184613a36565b9050969550505050505056fea264697066735822122086c076aa34cb79b005795fa56189a9f3689ceed6c0c3c917bc45ce51b2667fc064736f6c63430008180033",
  "linkReferences": {},
  "deployedLinkReferences": {}
}